{
  "contractName": "Cryptomon",
  "abi": [
    {
      "inputs": [],
      "stateMutability": "nonpayable",
      "type": "constructor"
    },
    {
      "anonymous": false,
      "inputs": [
        {
          "indexed": false,
          "internalType": "uint256",
          "name": "attacker",
          "type": "uint256"
        },
        {
          "indexed": false,
          "internalType": "uint256",
          "name": "defender",
          "type": "uint256"
        },
        {
          "indexed": false,
          "internalType": "uint8",
          "name": "rand",
          "type": "uint8"
        },
        {
          "indexed": false,
          "internalType": "uint8",
          "name": "winRate256",
          "type": "uint8"
        },
        {
          "indexed": false,
          "internalType": "uint256",
          "name": "winner",
          "type": "uint256"
        }
      ],
      "name": "Fight",
      "type": "event"
    },
    {
      "anonymous": false,
      "inputs": [
        {
          "indexed": false,
          "internalType": "uint256",
          "name": "id",
          "type": "uint256"
        },
        {
          "indexed": false,
          "internalType": "uint256",
          "name": "amount",
          "type": "uint256"
        }
      ],
      "name": "ListedForSale",
      "type": "event"
    },
    {
      "anonymous": false,
      "inputs": [
        {
          "indexed": false,
          "internalType": "uint256",
          "name": "pokId",
          "type": "uint256"
        }
      ],
      "name": "PokemonAdded",
      "type": "event"
    },
    {
      "anonymous": false,
      "inputs": [
        {
          "indexed": false,
          "internalType": "address",
          "name": "seller",
          "type": "address"
        },
        {
          "indexed": false,
          "internalType": "address",
          "name": "buyer",
          "type": "address"
        },
        {
          "indexed": false,
          "internalType": "uint256",
          "name": "id",
          "type": "uint256"
        },
        {
          "indexed": false,
          "internalType": "uint256",
          "name": "amount",
          "type": "uint256"
        }
      ],
      "name": "Purchase",
      "type": "event"
    },
    {
      "anonymous": false,
      "inputs": [
        {
          "indexed": false,
          "internalType": "uint16",
          "name": "speciesId",
          "type": "uint16"
        }
      ],
      "name": "SpeciesDefined",
      "type": "event"
    },
    {
      "inputs": [],
      "name": "_admin",
      "outputs": [
        {
          "internalType": "address",
          "name": "",
          "type": "address"
        }
      ],
      "stateMutability": "view",
      "type": "function",
      "constant": true
    },
    {
      "inputs": [
        {
          "internalType": "address",
          "name": "",
          "type": "address"
        }
      ],
      "name": "_pendingWithdrawals",
      "outputs": [
        {
          "internalType": "uint256",
          "name": "",
          "type": "uint256"
        }
      ],
      "stateMutability": "view",
      "type": "function",
      "constant": true
    },
    {
      "inputs": [
        {
          "internalType": "uint256",
          "name": "",
          "type": "uint256"
        }
      ],
      "name": "_pokCanEvolve",
      "outputs": [
        {
          "internalType": "bool",
          "name": "",
          "type": "bool"
        }
      ],
      "stateMutability": "view",
      "type": "function",
      "constant": true
    },
    {
      "inputs": [
        {
          "internalType": "uint256",
          "name": "",
          "type": "uint256"
        }
      ],
      "name": "_pokForSale",
      "outputs": [
        {
          "internalType": "bool",
          "name": "",
          "type": "bool"
        }
      ],
      "stateMutability": "view",
      "type": "function",
      "constant": true
    },
    {
      "inputs": [
        {
          "internalType": "uint256",
          "name": "",
          "type": "uint256"
        }
      ],
      "name": "_pokGeneration",
      "outputs": [
        {
          "internalType": "uint8",
          "name": "",
          "type": "uint8"
        }
      ],
      "stateMutability": "view",
      "type": "function",
      "constant": true
    },
    {
      "inputs": [
        {
          "internalType": "uint256",
          "name": "",
          "type": "uint256"
        }
      ],
      "name": "_pokLevel",
      "outputs": [
        {
          "internalType": "uint8",
          "name": "",
          "type": "uint8"
        }
      ],
      "stateMutability": "view",
      "type": "function",
      "constant": true
    },
    {
      "inputs": [
        {
          "internalType": "uint256",
          "name": "",
          "type": "uint256"
        }
      ],
      "name": "_pokOwner",
      "outputs": [
        {
          "internalType": "address",
          "name": "",
          "type": "address"
        }
      ],
      "stateMutability": "view",
      "type": "function",
      "constant": true
    },
    {
      "inputs": [
        {
          "internalType": "uint256",
          "name": "",
          "type": "uint256"
        }
      ],
      "name": "_pokPrice",
      "outputs": [
        {
          "internalType": "uint256",
          "name": "",
          "type": "uint256"
        }
      ],
      "stateMutability": "view",
      "type": "function",
      "constant": true
    },
    {
      "inputs": [
        {
          "internalType": "uint256",
          "name": "",
          "type": "uint256"
        }
      ],
      "name": "_pokSpeciesId",
      "outputs": [
        {
          "internalType": "uint16",
          "name": "",
          "type": "uint16"
        }
      ],
      "stateMutability": "view",
      "type": "function",
      "constant": true
    },
    {
      "inputs": [
        {
          "internalType": "uint256",
          "name": "",
          "type": "uint256"
        }
      ],
      "name": "_pokStunned",
      "outputs": [
        {
          "internalType": "bool",
          "name": "",
          "type": "bool"
        }
      ],
      "stateMutability": "view",
      "type": "function",
      "constant": true
    },
    {
      "inputs": [
        {
          "internalType": "uint256",
          "name": "",
          "type": "uint256"
        }
      ],
      "name": "_pokTimesCanBreed",
      "outputs": [
        {
          "internalType": "uint8",
          "name": "",
          "type": "uint8"
        }
      ],
      "stateMutability": "view",
      "type": "function",
      "constant": true
    },
    {
      "inputs": [],
      "name": "_revivePrice",
      "outputs": [
        {
          "internalType": "uint256",
          "name": "",
          "type": "uint256"
        }
      ],
      "stateMutability": "view",
      "type": "function",
      "constant": true
    },
    {
      "inputs": [
        {
          "internalType": "uint16",
          "name": "",
          "type": "uint16"
        }
      ],
      "name": "_speciesBreedsTo",
      "outputs": [
        {
          "internalType": "uint16",
          "name": "",
          "type": "uint16"
        }
      ],
      "stateMutability": "view",
      "type": "function",
      "constant": true
    },
    {
      "inputs": [
        {
          "internalType": "uint16",
          "name": "",
          "type": "uint16"
        }
      ],
      "name": "_speciesEvolvesTo",
      "outputs": [
        {
          "internalType": "uint16",
          "name": "",
          "type": "uint16"
        }
      ],
      "stateMutability": "view",
      "type": "function",
      "constant": true
    },
    {
      "inputs": [
        {
          "internalType": "uint16",
          "name": "",
          "type": "uint16"
        }
      ],
      "name": "_speciesTimesCanBreed",
      "outputs": [
        {
          "internalType": "uint8",
          "name": "",
          "type": "uint8"
        }
      ],
      "stateMutability": "view",
      "type": "function",
      "constant": true
    },
    {
      "inputs": [
        {
          "internalType": "uint16",
          "name": "",
          "type": "uint16"
        }
      ],
      "name": "_speciesType",
      "outputs": [
        {
          "internalType": "uint8",
          "name": "",
          "type": "uint8"
        }
      ],
      "stateMutability": "view",
      "type": "function",
      "constant": true
    },
    {
      "inputs": [],
      "name": "_totalNumPokemon",
      "outputs": [
        {
          "internalType": "uint256",
          "name": "",
          "type": "uint256"
        }
      ],
      "stateMutability": "view",
      "type": "function",
      "constant": true
    },
    {
      "stateMutability": "payable",
      "type": "receive",
      "payable": true
    },
    {
      "inputs": [],
      "name": "addInitialPokemon",
      "outputs": [],
      "stateMutability": "nonpayable",
      "type": "function"
    },
    {
      "inputs": [
        {
          "internalType": "uint256",
          "name": "id",
          "type": "uint256"
        }
      ],
      "name": "getOwner",
      "outputs": [
        {
          "internalType": "address",
          "name": "owner",
          "type": "address"
        }
      ],
      "stateMutability": "view",
      "type": "function",
      "constant": true
    },
    {
      "inputs": [
        {
          "internalType": "uint16",
          "name": "speciesId",
          "type": "uint16"
        },
        {
          "internalType": "uint8",
          "name": "speciesType",
          "type": "uint8"
        },
        {
          "internalType": "uint16",
          "name": "evolvesTo",
          "type": "uint16"
        },
        {
          "internalType": "uint16",
          "name": "breedsTo",
          "type": "uint16"
        },
        {
          "internalType": "uint8",
          "name": "timesCanBreed",
          "type": "uint8"
        }
      ],
      "name": "defineSpecies",
      "outputs": [],
      "stateMutability": "nonpayable",
      "type": "function"
    },
    {
      "inputs": [
        {
          "internalType": "uint16",
          "name": "species",
          "type": "uint16"
        },
        {
          "internalType": "uint256",
          "name": "price",
          "type": "uint256"
        },
        {
          "internalType": "bool",
          "name": "forSale",
          "type": "bool"
        },
        {
          "internalType": "uint8",
          "name": "level",
          "type": "uint8"
        }
      ],
      "name": "addPokemon",
      "outputs": [],
      "stateMutability": "nonpayable",
      "type": "function"
    },
    {
      "inputs": [
        {
          "internalType": "uint256",
          "name": "price",
          "type": "uint256"
        }
      ],
      "name": "setRevivePrice",
      "outputs": [],
      "stateMutability": "nonpayable",
      "type": "function"
    },
    {
      "inputs": [
        {
          "internalType": "uint256",
          "name": "id",
          "type": "uint256"
        }
      ],
      "name": "buyPokemon",
      "outputs": [],
      "stateMutability": "payable",
      "type": "function",
      "payable": true
    },
    {
      "inputs": [
        {
          "internalType": "uint256",
          "name": "id",
          "type": "uint256"
        },
        {
          "internalType": "uint256",
          "name": "amount",
          "type": "uint256"
        }
      ],
      "name": "sellPokemon",
      "outputs": [],
      "stateMutability": "nonpayable",
      "type": "function"
    },
    {
      "inputs": [
        {
          "internalType": "uint256",
          "name": "attacker",
          "type": "uint256"
        },
        {
          "internalType": "uint256",
          "name": "defender",
          "type": "uint256"
        }
      ],
      "name": "fight",
      "outputs": [],
      "stateMutability": "nonpayable",
      "type": "function"
    },
    {
      "inputs": [
        {
          "internalType": "uint256",
          "name": "id",
          "type": "uint256"
        }
      ],
      "name": "evolve",
      "outputs": [],
      "stateMutability": "nonpayable",
      "type": "function"
    },
    {
      "inputs": [
        {
          "internalType": "uint256",
          "name": "id",
          "type": "uint256"
        }
      ],
      "name": "revive",
      "outputs": [],
      "stateMutability": "payable",
      "type": "function",
      "payable": true
    },
    {
      "inputs": [
        {
          "internalType": "uint256",
          "name": "id",
          "type": "uint256"
        }
      ],
      "name": "breed",
      "outputs": [],
      "stateMutability": "nonpayable",
      "type": "function"
    },
    {
      "inputs": [],
      "name": "checkBalance",
      "outputs": [
        {
          "internalType": "uint256",
          "name": "balance",
          "type": "uint256"
        }
      ],
      "stateMutability": "view",
      "type": "function",
      "constant": true
    },
    {
      "inputs": [],
      "name": "withdrawFunds",
      "outputs": [],
      "stateMutability": "nonpayable",
      "type": "function"
    }
  ],
  "bytecode": "0x6080604052662386f26fc1000060105534801561001b57600080fd5b50336000806101000a81548173ffffffffffffffffffffffffffffffffffffffff021916908373ffffffffffffffffffffffffffffffffffffffff16021790555060006001819055506131d3806100736000396000f3fe6080604052600436106101ee576000357c010000000000000000000000000000000000000000000000000000000090048063947c37c411610114578063c41a360a116100b2578063d75efef011610081578063d75efef014610a13578063e85dd66e14610a41578063ef9b04de14610a86578063f119f56714610ae157610242565b8063c41a360a146108d9578063c71daccb14610954578063ca39e5ef1461097f578063d6b6db6e146109c457610242565b8063abe6ad69116100ee578063abe6ad6914610793578063af9a1cd21461080e578063c30c297614610849578063c3662b281461087457610242565b8063947c37c414610672578063a821b448146106cb578063ab1e500c1461071e57610242565b806366552aed1161018c578063818b832e1161015b578063818b832e1461056d578063820cec9f146105c65780638ada0c46146105f15780638baecc211461064457610242565b806366552aed146104135780637742accf1461046a5780637aa4caa3146104c557806381224d551461051a57610242565b80632901a4e3116101c85780632901a4e31461030a5780633415d199146103455780635e5282d21461039a578063615a7750146103b157610242565b806301bc45c91461024757806319b6927f1461029e57806324600fc3146102f357610242565b366102425734600f60003373ffffffffffffffffffffffffffffffffffffffff1673ffffffffffffffffffffffffffffffffffffffff16815260200190815260200160002060008282540192505081905550005b600080fd5b34801561025357600080fd5b5061025c610b1c565b604051808273ffffffffffffffffffffffffffffffffffffffff1673ffffffffffffffffffffffffffffffffffffffff16815260200191505060405180910390f35b3480156102aa57600080fd5b506102d7600480360360208110156102c157600080fd5b8101908080359060200190929190505050610b41565b604051808260ff1660ff16815260200191505060405180910390f35b3480156102ff57600080fd5b50610308610b72565b005b34801561031657600080fd5b506103436004803603602081101561032d57600080fd5b8101908080359060200190929190505050610ce3565b005b34801561035157600080fd5b5061037e6004803603602081101561036857600080fd5b8101908080359060200190929190505050610d92565b604051808260ff1660ff16815260200191505060405180910390f35b3480156103a657600080fd5b506103af610dc3565b005b3480156103bd57600080fd5b50610411600480360360808110156103d457600080fd5b81019080803561ffff16906020019092919080359060200190929190803515159060200190929190803560ff1690602001909291905050506110fd565b005b34801561041f57600080fd5b5061044c6004803603602081101561043657600080fd5b81019080803590602001909291905050506111d8565b604051808261ffff1661ffff16815260200191505060405180910390f35b34801561047657600080fd5b506104a76004803603602081101561048d57600080fd5b81019080803561ffff16906020019092919050505061120d565b604051808261ffff1661ffff16815260200191505060405180910390f35b3480156104d157600080fd5b506104fe600480360360208110156104e857600080fd5b810190808035906020019092919050505061122e565b604051808260ff1660ff16815260200191505060405180910390f35b34801561052657600080fd5b506105536004803603602081101561053d57600080fd5b810190808035906020019092919050505061125f565b604051808215151515815260200191505060405180910390f35b34801561057957600080fd5b506105aa6004803603602081101561059057600080fd5b81019080803561ffff169060200190929190505050611290565b604051808260ff1660ff16815260200191505060405180910390f35b3480156105d257600080fd5b506105db6112b0565b6040518082815260200191505060405180910390f35b3480156105fd57600080fd5b5061062a6004803603602081101561061457600080fd5b81019080803590602001909291905050506112b6565b604051808215151515815260200191505060405180910390f35b6106706004803603602081101561065a57600080fd5b81019080803590602001909291905050506112e7565b005b34801561067e57600080fd5b506106af6004803603602081101561069557600080fd5b81019080803561ffff1690602001909291905050506115e9565b604051808260ff1660ff16815260200191505060405180910390f35b3480156106d757600080fd5b50610704600480360360208110156106ee57600080fd5b8101908080359060200190929190505050611609565b604051808215151515815260200191505060405180910390f35b34801561072a57600080fd5b50610791600480360360a081101561074157600080fd5b81019080803561ffff169060200190929190803560ff169060200190929190803561ffff169060200190929190803561ffff169060200190929190803560ff16906020019092919050505061163a565b005b34801561079f57600080fd5b506107cc600480360360208110156107b657600080fd5b81019080803590602001909291905050506117f9565b604051808273ffffffffffffffffffffffffffffffffffffffff1673ffffffffffffffffffffffffffffffffffffffff16815260200191505060405180910390f35b34801561081a57600080fd5b506108476004803603602081101561083157600080fd5b8101908080359060200190929190505050611835565b005b34801561085557600080fd5b5061085e611ba3565b6040518082815260200191505060405180910390f35b34801561088057600080fd5b506108c36004803603602081101561089757600080fd5b81019080803573ffffffffffffffffffffffffffffffffffffffff169060200190929190505050611ba9565b6040518082815260200191505060405180910390f35b3480156108e557600080fd5b50610912600480360360208110156108fc57600080fd5b8101908080359060200190929190505050611bc1565b604051808273ffffffffffffffffffffffffffffffffffffffff1673ffffffffffffffffffffffffffffffffffffffff16815260200191505060405180910390f35b34801561096057600080fd5b50610969611c88565b6040518082815260200191505060405180910390f35b34801561098b57600080fd5b506109c2600480360360408110156109a257600080fd5b810190808035906020019092919080359060200190929190505050611ccf565b005b3480156109d057600080fd5b506109fd600480360360208110156109e757600080fd5b810190808035906020019092919050505061228c565b6040518082815260200191505060405180910390f35b610a3f60048036036020811015610a2957600080fd5b81019080803590602001909291905050506122ad565b005b348015610a4d57600080fd5b50610a8460048036036040811015610a6457600080fd5b8101908080359060200190929190803590602001909291905050506126f9565b005b348015610a9257600080fd5b50610ac360048036036020811015610aa957600080fd5b81019080803561ffff1690602001909291905050506128f0565b604051808261ffff1661ffff16815260200191505060405180910390f35b348015610aed57600080fd5b50610b1a60048036036020811015610b0457600080fd5b8101908080359060200190929190505050612911565b005b6000809054906101000a900473ffffffffffffffffffffffffffffffffffffffff1681565b60098181548110610b4e57fe5b9060005260206000209060209182820401919006915054906101000a900460ff1681565b6000600f60003373ffffffffffffffffffffffffffffffffffffffff1673ffffffffffffffffffffffffffffffffffffffff1681526020019081526020016000205411610c0a576040517f08c379a00000000000000000000000000000000000000000000000000000000081526004018080602001828103825260258152602001806131316025913960400191505060405180910390fd5b6000600f60003373ffffffffffffffffffffffffffffffffffffffff1673ffffffffffffffffffffffffffffffffffffffff1681526020019081526020016000205490506000600f60003373ffffffffffffffffffffffffffffffffffffffff1673ffffffffffffffffffffffffffffffffffffffff1681526020019081526020016000208190555060003390508073ffffffffffffffffffffffffffffffffffffffff166108fc839081150290604051600060405180830381858888f19350505050158015610cde573d6000803e3d6000fd5b505050565b6000809054906101000a900473ffffffffffffffffffffffffffffffffffffffff1673ffffffffffffffffffffffffffffffffffffffff163373ffffffffffffffffffffffffffffffffffffffff1614610d88576040517f08c379a000000000000000000000000000000000000000000000000000000000815260040180806020018281038252602781526020018061310a6027913960400191505060405180910390fd5b8060108190555050565b60068181548110610d9f57fe5b9060005260206000209060209182820401919006915054906101000a900460ff1681565b6000809054906101000a900473ffffffffffffffffffffffffffffffffffffffff1673ffffffffffffffffffffffffffffffffffffffff163373ffffffffffffffffffffffffffffffffffffffff1614610e68576040517f08c379a000000000000000000000000000000000000000000000000000000000815260040180806020018281038252602781526020018061310a6027913960400191505060405180910390fd5b600060015414610ee0576040517f08c379a000000000000000000000000000000000000000000000000000000000815260040180806020018281038252601f8152602001807f506f6b656d6f6e206861766520616c7265616479206265656e2061646465640081525060200191505060405180910390fd5b610ef160016004600180600061163a565b610f0260026011600280600061163a565b610f146003600060046003600161163a565b610f266004600060046003600161163a565b610f386005600360066005600261163a565b610f4a6006600360076005600261163a565b610f5c6007600360076005600261163a565b610f6e6008600c60096008600261163a565b610f806009600c60096008600261163a565b610f92600a6001600b600a600261163a565b610fa4600b6001600c600a600261163a565b610fb6600c6001600c600a600261163a565b610fc7600d600f600d80600261163a565b610fd9600e6002600f600e600261163a565b610feb600f60026010600e600261163a565b610ffd601060026010600e600261163a565b61100f6011600360126011600261163a565b6110216012600360136011600261163a565b6110336013600360136011600261163a565b61104a6001670de0b6b3a7640000600160056110fd565b6110616002670de0b6b3a7640000600160056110fd565b61107760036702c68af0bb1400006001806110fd565b61108d600567016345785d8a00006001806110fd565b6110a3600867016345785d8a00006001806110fd565b6110b9600a67016345785d8a00006001806110fd565b6110cf600d67016345785d8a00006001806110fd565b6110e5600e67016345785d8a00006001806110fd565b6110fb601167016345785d8a00006001806110fd565b565b6000809054906101000a900473ffffffffffffffffffffffffffffffffffffffff1673ffffffffffffffffffffffffffffffffffffffff163373ffffffffffffffffffffffffffffffffffffffff16146111a2576040517f08c379a000000000000000000000000000000000000000000000000000000000815260040180806020018281038252602781526020018061310a6027913960400191505060405180910390fd5b6111d28460008585856000809054906101000a900473ffffffffffffffffffffffffffffffffffffffff16612bfc565b50505050565b600281815481106111e557fe5b9060005260206000209060109182820401919006600202915054906101000a900461ffff1681565b600d6020528060005260406000206000915054906101000a900461ffff1681565b600a818154811061123b57fe5b9060005260206000209060209182820401919006915054906101000a900460ff1681565b6004818154811061126c57fe5b9060005260206000209060209182820401919006915054906101000a900460ff1681565b600b6020528060005260406000206000915054906101000a900460ff1681565b60105481565b600881815481106112c357fe5b9060005260206000209060209182820401919006915054906101000a900460ff1681565b80600081101580156112fa575060015481105b61136c576040517f08c379a00000000000000000000000000000000000000000000000000000000081526004018080602001828103825260188152602001807f506f6b656d6f6e206964206f7574206f6620626f756e6473000000000000000081525060200191505060405180910390fd5b813373ffffffffffffffffffffffffffffffffffffffff166003828154811061139157fe5b9060005260206000200160009054906101000a900473ffffffffffffffffffffffffffffffffffffffff1673ffffffffffffffffffffffffffffffffffffffff1614611445576040517f08c379a000000000000000000000000000000000000000000000000000000000815260040180806020018281038252601b8152602001807f596f7520646f206e6f74206f776e207468697320706f6b656d6f6e000000000081525060200191505060405180910390fd5b6008838154811061145257fe5b90600052602060002090602091828204019190069054906101000a900460ff166114e4576040517f08c379a000000000000000000000000000000000000000000000000000000000815260040180806020018281038252601b8152602001807f5468697320706f6b656d6f6e206973206e6f74207374756e6e6564000000000081525060200191505060405180910390fd5b601054341461153e576040517f08c379a00000000000000000000000000000000000000000000000000000000081526004018080602001828103825260258152602001806131796025913960400191505060405180910390fd5b34600f60008060009054906101000a900473ffffffffffffffffffffffffffffffffffffffff1673ffffffffffffffffffffffffffffffffffffffff1673ffffffffffffffffffffffffffffffffffffffff168152602001908152602001600020600082825401925050819055506000600884815481106115bb57fe5b90600052602060002090602091828204019190066101000a81548160ff021916908315150217905550505050565b600e6020528060005260406000206000915054906101000a900460ff1681565b6007818154811061161657fe5b9060005260206000209060209182820401919006915054906101000a900460ff1681565b6000809054906101000a900473ffffffffffffffffffffffffffffffffffffffff1673ffffffffffffffffffffffffffffffffffffffff163373ffffffffffffffffffffffffffffffffffffffff16146116df576040517f08c379a000000000000000000000000000000000000000000000000000000000815260040180806020018281038252602781526020018061310a6027913960400191505060405180910390fd5b83600b60008761ffff1661ffff16815260200190815260200160002060006101000a81548160ff021916908360ff16021790555082600c60008761ffff1661ffff16815260200190815260200160002060006101000a81548161ffff021916908361ffff16021790555081600d60008761ffff1661ffff16815260200190815260200160002060006101000a81548161ffff021916908361ffff16021790555080600e60008761ffff1661ffff16815260200190815260200160002060006101000a81548160ff021916908360ff1602179055507f534994138948cf5d19e812ccc566f09cab4902d6bff9033ca841730ce2fb4a7285604051808261ffff1661ffff16815260200191505060405180910390a15050505050565b6003818154811061180657fe5b906000526020600020016000915054906101000a900473ffffffffffffffffffffffffffffffffffffffff1681565b8060008110158015611848575060015481105b6118ba576040517f08c379a00000000000000000000000000000000000000000000000000000000081526004018080602001828103825260188152602001807f506f6b656d6f6e206964206f7574206f6620626f756e6473000000000000000081525060200191505060405180910390fd5b813373ffffffffffffffffffffffffffffffffffffffff16600382815481106118df57fe5b9060005260206000200160009054906101000a900473ffffffffffffffffffffffffffffffffffffffff1673ffffffffffffffffffffffffffffffffffffffff1614611993576040517f08c379a000000000000000000000000000000000000000000000000000000000815260040180806020018281038252601b8152602001807f596f7520646f206e6f74206f776e207468697320706f6b656d6f6e000000000081525060200191505060405180910390fd5b6000600984815481106119a257fe5b90600052602060002090602091828204019190069054906101000a900460ff1660ff1611611a1b576040517f08c379a000000000000000000000000000000000000000000000000000000000815260040180806020018281038252602a815260200180613074602a913960400191505060405180910390fd5b60088381548110611a2857fe5b90600052602060002090602091828204019190069054906101000a900460ff1615611abb576040517f08c379a00000000000000000000000000000000000000000000000000000000081526004018080602001828103825260178152602001807f5468697320706f6b656d6f6e206973207374756e6e656400000000000000000081525060200191505060405180910390fd5b600160098481548110611aca57fe5b90600052602060002090602091828204019190068282829054906101000a900460ff160392506101000a81548160ff021916908360ff160217905550611b9e600d600060028681548110611b1a57fe5b90600052602060002090601091828204019190066002029054906101000a900461ffff1661ffff1661ffff16815260200190815260200160002060009054906101000a900461ffff166001600a8681548110611b7257fe5b90600052602060002090602091828204019190069054906101000a900460ff1601600080600133612bfc565b505050565b60015481565b600f6020528060005260406000206000915090505481565b60008160008110158015611bd6575060015481105b611c48576040517f08c379a00000000000000000000000000000000000000000000000000000000081526004018080602001828103825260188152602001807f506f6b656d6f6e206964206f7574206f6620626f756e6473000000000000000081525060200191505060405180910390fd5b60038381548110611c5557fe5b9060005260206000200160009054906101000a900473ffffffffffffffffffffffffffffffffffffffff16915050919050565b6000600f60003373ffffffffffffffffffffffffffffffffffffffff1673ffffffffffffffffffffffffffffffffffffffff16815260200190815260200160002054905090565b8160008110158015611ce2575060015481105b611d54576040517f08c379a00000000000000000000000000000000000000000000000000000000081526004018080602001828103825260188152602001807f506f6b656d6f6e206964206f7574206f6620626f756e6473000000000000000081525060200191505060405180910390fd5b8160008110158015611d67575060015481105b611dd9576040517f08c379a00000000000000000000000000000000000000000000000000000000081526004018080602001828103825260188152602001807f506f6b656d6f6e206964206f7574206f6620626f756e6473000000000000000081525060200191505060405180910390fd5b833373ffffffffffffffffffffffffffffffffffffffff1660038281548110611dfe57fe5b9060005260206000200160009054906101000a900473ffffffffffffffffffffffffffffffffffffffff1673ffffffffffffffffffffffffffffffffffffffff1614611eb2576040517f08c379a000000000000000000000000000000000000000000000000000000000815260040180806020018281038252601b8152602001807f596f7520646f206e6f74206f776e207468697320706f6b656d6f6e000000000081525060200191505060405180910390fd5b60088581548110611ebf57fe5b90600052602060002090602091828204019190069054906101000a900460ff1615611f52576040517f08c379a00000000000000000000000000000000000000000000000000000000081526004018080602001828103825260178152602001807f5468697320706f6b656d6f6e206973207374756e6e656400000000000000000081525060200191505060405180910390fd5b60088481548110611f5f57fe5b90600052602060002090602091828204019190069054906101000a900460ff1615611ff2576040517f08c379a000000000000000000000000000000000000000000000000000000000815260040180806020018281038252601f8152602001807f43616e6e6f742061747461636b2061207374756e6e656420706f6b656d6f6e0081525060200191505060405180910390fd5b6000611ffc612ff8565b905060006006868154811061200d57fe5b90600052602060002090602091828204019190069054906101000a900460ff166006888154811061203a57fe5b90600052602060002090602091828204019190069054906101000a900460ff16039050600060018260040160ff1660020a0390506000808260ff168560ff161161208957899150889050612090565b8891508990505b60056006838154811061209f57fe5b90600052602060002090602091828204019190069054906101000a900460ff1660ff161015612114576001600683815481106120d757fe5b90600052602060002090602091828204019190068282829054906101000a900460ff160192506101000a81548160ff021916908360ff1602179055505b6002828154811061212157fe5b90600052602060002090601091828204019190066002029054906101000a900461ffff1661ffff16600c60006002858154811061215a57fe5b90600052602060002090601091828204019190066002029054906101000a900461ffff1661ffff1661ffff16815260200190815260200160002060009054906101000a900461ffff1661ffff16146121e5576001600783815481106121bb57fe5b90600052602060002090602091828204019190066101000a81548160ff0219169083151502179055505b6001600882815481106121f457fe5b90600052602060002090602091828204019190066101000a81548160ff0219169083151502179055507f9aed943103b35f67bae36592bd6d9ceb5ad75e9fa2948eac10a56df488cda57c8a8a878686604051808681526020018581526020018460ff1660ff1681526020018360ff1660ff1681526020018281526020019550505050505060405180910390a150505050505050505050565b6005818154811061229957fe5b906000526020600020016000915090505481565b80600081101580156122c0575060015481105b612332576040517f08c379a00000000000000000000000000000000000000000000000000000000081526004018080602001828103825260188152602001807f506f6b656d6f6e206964206f7574206f6620626f756e6473000000000000000081525060200191505060405180910390fd5b3373ffffffffffffffffffffffffffffffffffffffff166003838154811061235657fe5b9060005260206000200160009054906101000a900473ffffffffffffffffffffffffffffffffffffffff1673ffffffffffffffffffffffffffffffffffffffff16141561240b576040517f08c379a000000000000000000000000000000000000000000000000000000000815260040180806020018281038252601c8152602001807f596f7520616c7265616479206f776e207468697320706f6b656d6f6e0000000081525060200191505060405180910390fd5b346005838154811061241957fe5b90600052602060002001541461247a576040517f08c379a000000000000000000000000000000000000000000000000000000000815260040180806020018281038252602b81526020018061309e602b913960400191505060405180910390fd5b6004828154811061248757fe5b90600052602060002090602091828204019190069054906101000a900460ff16612519576040517f08c379a000000000000000000000000000000000000000000000000000000000815260040180806020018281038252601c8152602001807f5468697320706f6b656d6f6e206973206e6f7420666f722073616c650000000081525060200191505060405180910390fd5b60006003838154811061252857fe5b9060005260206000200160009054906101000a900473ffffffffffffffffffffffffffffffffffffffff16905034600f60008373ffffffffffffffffffffffffffffffffffffffff1673ffffffffffffffffffffffffffffffffffffffff1681526020019081526020016000206000828254019250508190555033600384815481106125b057fe5b9060005260206000200160006101000a81548173ffffffffffffffffffffffffffffffffffffffff021916908373ffffffffffffffffffffffffffffffffffffffff16021790555060006004848154811061260757fe5b90600052602060002090602091828204019190066101000a81548160ff02191690831515021790555060006005848154811061263f57fe5b90600052602060002001819055507f46661dab58311a6838247afecbee792192b4f27fc8b3e7168c66bc55ec2e404e81338534604051808573ffffffffffffffffffffffffffffffffffffffff1673ffffffffffffffffffffffffffffffffffffffff1681526020018473ffffffffffffffffffffffffffffffffffffffff1673ffffffffffffffffffffffffffffffffffffffff16815260200183815260200182815260200194505050505060405180910390a1505050565b816000811015801561270c575060015481105b61277e576040517f08c379a00000000000000000000000000000000000000000000000000000000081526004018080602001828103825260188152602001807f506f6b656d6f6e206964206f7574206f6620626f756e6473000000000000000081525060200191505060405180910390fd5b823373ffffffffffffffffffffffffffffffffffffffff16600382815481106127a357fe5b9060005260206000200160009054906101000a900473ffffffffffffffffffffffffffffffffffffffff1673ffffffffffffffffffffffffffffffffffffffff1614612857576040517f08c379a000000000000000000000000000000000000000000000000000000000815260040180806020018281038252601b8152602001807f596f7520646f206e6f74206f776e207468697320706f6b656d6f6e000000000081525060200191505060405180910390fd5b60016004858154811061286657fe5b90600052602060002090602091828204019190066101000a81548160ff021916908315150217905550826005858154811061289d57fe5b90600052602060002001819055507f27aebf2e0e5cf25f00bd3797d26b69f66ac7ccb85a55702906e672e9cb7d1c258484604051808381526020018281526020019250505060405180910390a150505050565b600c6020528060005260406000206000915054906101000a900461ffff1681565b8060008110158015612924575060015481105b612996576040517f08c379a00000000000000000000000000000000000000000000000000000000081526004018080602001828103825260188152602001807f506f6b656d6f6e206964206f7574206f6620626f756e6473000000000000000081525060200191505060405180910390fd5b813373ffffffffffffffffffffffffffffffffffffffff16600382815481106129bb57fe5b9060005260206000200160009054906101000a900473ffffffffffffffffffffffffffffffffffffffff1673ffffffffffffffffffffffffffffffffffffffff1614612a6f576040517f08c379a000000000000000000000000000000000000000000000000000000000815260040180806020018281038252601b8152602001807f596f7520646f206e6f74206f776e207468697320706f6b656d6f6e000000000081525060200191505060405180910390fd5b60078381548110612a7c57fe5b90600052602060002090602091828204019190069054906101000a900460ff16612af1576040517f08c379a00000000000000000000000000000000000000000000000000000000081526004018080602001828103825260238152602001806131566023913960400191505060405180910390fd5b600060078481548110612b0057fe5b90600052602060002090602091828204019190066101000a81548160ff021916908315150217905550600060088481548110612b3857fe5b90600052602060002090602091828204019190066101000a81548160ff021916908315150217905550600c600060028581548110612b7257fe5b90600052602060002090601091828204019190066002029054906101000a900461ffff1661ffff1661ffff16815260200190815260200160002060009054906101000a900461ffff1660028481548110612bc857fe5b90600052602060002090601091828204019190066002026101000a81548161ffff021916908361ffff160217905550505050565b6000600c60008861ffff1661ffff16815260200190815260200160002060009054906101000a900461ffff1661ffff161415612c83576040517f08c379a000000000000000000000000000000000000000000000000000000000815260040180806020018281038252603781526020018061303d6037913960400191505060405180910390fd5b6000600d60008861ffff1661ffff16815260200190815260200160002060009054906101000a900461ffff1661ffff161415612d0a576040517f08c379a00000000000000000000000000000000000000000000000000000000081526004018080602001828103825260418152602001806130c96041913960600191505060405180910390fd5b6001806000828254019250508190555060028690806001815401808255809150506001900390600052602060002090601091828204019190066002029091909190916101000a81548161ffff021916908361ffff1602179055506003819080600181540180825580915050600190039060005260206000200160009091909190916101000a81548173ffffffffffffffffffffffffffffffffffffffff021916908373ffffffffffffffffffffffffffffffffffffffff16021790555060048390806001815401808255809150506001900390600052602060002090602091828204019190069091909190916101000a81548160ff021916908315150217905550600584908060018154018082558091505060019003906000526020600020016000909190919091505560068290806001815401808255809150506001900390600052602060002090602091828204019190069091909190916101000a81548160ff021916908360ff1602179055506007600090806001815401808255809150506001900390600052602060002090602091828204019190069091909190916101000a81548160ff0219169083151502179055506008600090806001815401808255809150506001900390600052602060002090602091828204019190069091909190916101000a81548160ff0219169083151502179055506009600e60008861ffff1661ffff16815260200190815260200160002060009054906101000a900460ff1690806001815401808255809150506001900390600052602060002090602091828204019190069091909190916101000a81548160ff021916908360ff160217905550600a8590806001815401808255809150506001900390600052602060002090602091828204019190069091909190916101000a81548160ff021916908360ff1602179055507f7fec49099616f11f740db9fd697a5c5e6c02a45cd268ec2e909ca7277c21d40160018054036040518082815260200191505060405180910390a1505050505050565b600060fb4244604051602001808381526020018281526020019250505060405160208183030381529060405280519060200120600190048161303657fe5b0690509056fe546865206e6578742065766f6c7574696f6e20666f7220746869732073706563696573206861736e2774206265656e20646566696e65645468697320706f6b656d6f6e2063616e6e6f74206f722063616e206e6f206c6f6e6765722062726565644e6f207061796d656e74207265636569766564206f722077726f6e67207061796d656e7420616d6f756e745468652066697273742065766f6c7574696f6e206f6e20626972746820666f7220746869732073706563696573206861736e2774206265656e20646566696e65644f6e6c792067616d652061646d696e2063616e2063616c6c20746869732066756e6374696f6e2e596f7520646f206e6f74206861766520616e792066756e647320746f2077697468647261775468697320706f6b656d6f6e206973206e6f7420726561647920746f2065766f6c76654e6f206f722077726f6e67207061796d656e7420616d6f756e7420666f7220726576697665a264697066735822122024e8efd8d1a07952bb695077401d606d567f4b44825f53b47cc0995127692dce64736f6c63430006020033",
  "source": "pragma solidity >=0.6.1;\r\n\r\ncontract Cryptomon {\r\n    address public _admin;\r\n\r\n    uint public _totalNumPokemon;\r\n    uint16[] public _pokSpeciesId;\r\n    address[] public _pokOwner;\r\n    bool[] public _pokForSale;\r\n    uint[] public _pokPrice;\r\n    uint8[] public _pokLevel;\r\n    bool[] public _pokCanEvolve;\r\n    bool[] public _pokStunned;\r\n    uint8[] public _pokTimesCanBreed;\r\n    uint8[] public _pokGeneration;\r\n\r\n    mapping(uint16 => uint8) public _speciesType;\r\n    mapping(uint16 => uint16) public _speciesEvolvesTo;\r\n    mapping(uint16 => uint16) public _speciesBreedsTo;\r\n    mapping(uint16 => uint8) public _speciesTimesCanBreed;\r\n\r\n    mapping (address => uint) public _pendingWithdrawals;\r\n\r\n    uint public _revivePrice = 10 finney;\r\n\r\n    event SpeciesDefined(uint16 speciesId);\r\n    event PokemonAdded(uint pokId);\r\n    event Purchase(address seller, address buyer, uint id, uint amount);\r\n    event ListedForSale(uint id, uint amount);\r\n    event Fight(uint attacker, uint defender, uint8 rand, uint8 winRate256, uint winner);\r\n\r\n    modifier adminOnly() {\r\n        require(msg.sender == _admin, \"Only game admin can call this function.\");\r\n        _;\r\n    }\r\n\r\n    modifier checkPokemonId(uint id) {\r\n        require(id >= 0 && id < _totalNumPokemon, \"Pokemon id out of bounds\");\r\n        _;\r\n    }\r\n\r\n    modifier checkOwnsPokemon(uint id) {\r\n        require(_pokOwner[id] == msg.sender, \"You do not own this pokemon\");\r\n        _;\r\n    }\r\n\r\n    constructor() public {\r\n        _admin = msg.sender;\r\n        _totalNumPokemon = 0;\r\n    }\r\n\r\n    function addInitialPokemon() external adminOnly() {\r\n        require(_totalNumPokemon == 0, \"Pokemon have already been added\");\r\n        defineSpecies(1, 4, 1, 1, 0); // Tapu Koko\r\n        defineSpecies(2, 17, 2, 2, 0); // Tapu Lele\r\n        defineSpecies(3, 0, 4, 3, 1); // Stufful\r\n        defineSpecies(4, 0, 4, 3, 1); // Bewear\r\n        defineSpecies(5, 3, 6, 5, 2); // Rowlet\r\n        defineSpecies(6, 3, 7, 5, 2); // Dartrix\r\n        defineSpecies(7, 3, 7, 5, 2); // Decidueye\r\n        defineSpecies(8, 12, 9, 8, 2); // Rockruff\r\n        defineSpecies(9, 12, 9, 8, 2); // Lycanroc\r\n        defineSpecies(10, 1, 11, 10, 2); // Litten\r\n        defineSpecies(11, 1, 12, 10, 2); // Torracat\r\n        defineSpecies(12, 1, 12, 10, 2); // Incineroar\r\n        defineSpecies(13, 15, 13, 13, 2); // Mimikyu\r\n        defineSpecies(14, 2, 15, 14, 2); // Popplio\r\n        defineSpecies(15, 2, 16, 14, 2); // Brionne\r\n        defineSpecies(16, 2, 16, 14, 2); // Primarina\r\n        defineSpecies(17, 3, 18, 17, 2); // Bounsweet\r\n        defineSpecies(18, 3, 19, 17, 2); // Steenee\r\n        defineSpecies(19, 3, 19, 17, 2); // Tsareena\r\n\r\n        addPokemon(1,  1 ether,    true, 5);\r\n        addPokemon(2,  1 ether,    true, 5);\r\n        addPokemon(3,  200 finney, true, 1);\r\n        addPokemon(5,  100 finney, true, 1);\r\n        addPokemon(8,  100 finney, true, 1);\r\n        addPokemon(10, 100 finney, true, 1);\r\n        addPokemon(13, 100 finney, true, 1);\r\n        addPokemon(14, 100 finney, true, 1);\r\n        addPokemon(17, 100 finney, true, 1);\r\n    }\r\n\r\n    receive () external payable {\r\n        _pendingWithdrawals[msg.sender] += msg.value;\r\n    }\r\n\r\n    function getOwner(uint id) external view checkPokemonId(id) returns (address owner) {\r\n        return _pokOwner[id];\r\n    }\r\n\r\n    function defineSpecies(\r\n        uint16 speciesId, uint8 speciesType, uint16 evolvesTo, uint16 breedsTo, uint8 timesCanBreed\r\n    ) public adminOnly() {\r\n        _speciesType[speciesId] = speciesType;\r\n        _speciesEvolvesTo[speciesId] = evolvesTo;\r\n        _speciesBreedsTo[speciesId] = breedsTo;\r\n        _speciesTimesCanBreed[speciesId] = timesCanBreed;\r\n        emit SpeciesDefined(speciesId);\r\n    }\r\n\r\n    function addPokemon(\r\n        uint16 species, uint price, bool forSale, uint8 level\r\n    ) public adminOnly() {\r\n        _addPokemon(species, 0, price, forSale, level, _admin);\r\n    }\r\n\r\n    function setRevivePrice(uint price) external adminOnly() {\r\n        _revivePrice = price;\r\n    }\r\n\r\n    function buyPokemon(uint id) external payable checkPokemonId(id) {\r\n        require(_pokOwner[id] != msg.sender, \"You already own this pokemon\");\r\n        require(_pokPrice[id] == msg.value, \"No payment received or wrong payment amount\");\r\n        require(_pokForSale[id], \"This pokemon is not for sale\");\r\n        address seller = _pokOwner[id];\r\n        _pendingWithdrawals[seller] += msg.value;\r\n        _pokOwner[id] = msg.sender;\r\n        _pokForSale[id] = false;\r\n        _pokPrice[id] = 0;\r\n        emit Purchase(seller, msg.sender, id, msg.value);\r\n    }\r\n\r\n    function sellPokemon(uint id, uint amount) external checkPokemonId(id) checkOwnsPokemon(id) {\r\n        _pokForSale[id] = true;\r\n        _pokPrice[id] = amount;\r\n        emit ListedForSale(id, amount);\r\n    }\r\n\r\n    function fight(uint attacker, uint defender) external checkPokemonId(attacker) checkPokemonId(defender) checkOwnsPokemon(attacker) {\r\n        require(!_pokStunned[attacker], \"This pokemon is stunned\");\r\n        require(!_pokStunned[defender], \"Cannot attack a stunned pokemon\");\r\n        uint8 rand = _random();\r\n        uint8 advantage = _pokLevel[attacker] - _pokLevel[defender]; // +4 => certain win, -4 => certain loss\r\n        uint8 winRate256 = 2 ** (4 + advantage) - 1; // 256 => 100% win rate\r\n        uint winner;\r\n        uint loser;\r\n        if (rand <= winRate256) {\r\n            winner = attacker;\r\n            loser = defender;\r\n        } else {\r\n            winner = defender;\r\n            loser = attacker;\r\n        }\r\n        if (_pokLevel[winner] < 5) {\r\n            _pokLevel[winner] += 1;\r\n        }\r\n        if (_speciesEvolvesTo[_pokSpeciesId[winner]] != _pokSpeciesId[winner]) {\r\n            _pokCanEvolve[winner] = true;\r\n        }\r\n        _pokStunned[loser] = true;\r\n\r\n        emit Fight(attacker, defender, rand, winRate256, winner);\r\n    }\r\n\r\n    function evolve(uint id) external checkPokemonId(id) checkOwnsPokemon(id) {\r\n        require(_pokCanEvolve[id], \"This pokemon is not ready to evolve\");\r\n        _pokCanEvolve[id] = false;\r\n        _pokStunned[id] = false;\r\n        _pokSpeciesId[id] = _speciesEvolvesTo[_pokSpeciesId[id]];\r\n    }\r\n\r\n    function revive(uint id) external payable checkPokemonId(id) checkOwnsPokemon(id) {\r\n        require(_pokStunned[id], \"This pokemon is not stunned\");\r\n        require(msg.value == _revivePrice, \"No or wrong payment amount for revive\");\r\n        _pendingWithdrawals[_admin] += msg.value;\r\n        _pokStunned[id] = false;\r\n    }\r\n\r\n    function breed(uint id) external checkPokemonId(id) checkOwnsPokemon(id) {\r\n        require(_pokTimesCanBreed[id] > 0, \"This pokemon cannot or can no longer breed\");\r\n        require(!_pokStunned[id], \"This pokemon is stunned\");\r\n        _pokTimesCanBreed[id] -= 1;\r\n        _addPokemon(\r\n            _speciesBreedsTo[_pokSpeciesId[id]], \r\n            _pokGeneration[id] + 1,\r\n            0, \r\n            false, \r\n            1,\r\n            msg.sender\r\n        );\r\n    }\r\n\r\n    function checkBalance() external view returns (uint balance) {\r\n        return _pendingWithdrawals[msg.sender];\r\n    }\r\n\r\n    function withdrawFunds() external {\r\n        require(_pendingWithdrawals[msg.sender] > 0, \"You do not have any funds to withdraw\");\r\n        uint amount = _pendingWithdrawals[msg.sender];\r\n        _pendingWithdrawals[msg.sender] = 0;\r\n        address payable recipient = msg.sender;\r\n        recipient.transfer(amount);\r\n    }\r\n\r\n    function _addPokemon(\r\n        uint16 species,\r\n        uint8 generation,\r\n        uint price,\r\n        bool forSale,\r\n        uint8 level,\r\n        address owner\r\n    ) internal {\r\n        require(_speciesEvolvesTo[species] != 0, \"The next evolution for this species hasn't been defined\");\r\n        require(_speciesBreedsTo[species] != 0, \"The first evolution on birth for this species hasn't been defined\");\r\n        _totalNumPokemon += 1;\r\n        _pokSpeciesId.push(species);\r\n        _pokOwner.push(owner);\r\n        _pokForSale.push(forSale);\r\n        _pokPrice.push(price);\r\n        _pokLevel.push(level);\r\n        _pokCanEvolve.push(false);\r\n        _pokStunned.push(false);\r\n        _pokTimesCanBreed.push(_speciesTimesCanBreed[species]);\r\n        _pokGeneration.push(generation);\r\n        emit PokemonAdded(_totalNumPokemon - 1);\r\n    }\r\n\r\n    function _random() internal view returns (uint8) {\r\n        // credit: https://gist.github.com/michielmulders/b14d795a1d2c38af1133ea546fc641bc\r\n        return uint8(uint256(keccak256(abi.encodePacked(block.timestamp, block.difficulty))) % 251);\r\n    }\r\n\r\n}",
  "sourcePath": "C:/Users/harry/Dev/cryptomon/contracts/Cryptomon.sol",
  "compiler": {
    "name": "solc",
    "version": "0.6.2+commit.bacdbe57.Emscripten.clang"
  },
  "schemaVersion": "3.0.22",
  "updatedAt": "2020-02-11T14:28:29.514Z",
  "networkType": "ethereum",
  "devdoc": {
    "methods": {}
  },
  "userdoc": {
    "methods": {}
  }
}