{
  "contractName": "Cryptomon",
  "abi": [
    {
      "inputs": [],
      "stateMutability": "nonpayable",
      "type": "constructor"
    },
    {
      "anonymous": false,
      "inputs": [
        {
          "indexed": false,
          "internalType": "address",
          "name": "from",
          "type": "address"
        },
        {
          "indexed": false,
          "internalType": "address",
          "name": "to",
          "type": "address"
        },
        {
          "indexed": false,
          "internalType": "uint256",
          "name": "id",
          "type": "uint256"
        },
        {
          "indexed": false,
          "internalType": "uint256",
          "name": "amount",
          "type": "uint256"
        }
      ],
      "name": "Purchase",
      "type": "event"
    },
    {
      "inputs": [],
      "name": "_admin",
      "outputs": [
        {
          "internalType": "address",
          "name": "",
          "type": "address"
        }
      ],
      "stateMutability": "view",
      "type": "function"
    },
    {
      "inputs": [
        {
          "internalType": "address",
          "name": "",
          "type": "address"
        },
        {
          "internalType": "uint256",
          "name": "",
          "type": "uint256"
        }
      ],
      "name": "_idsByOwner",
      "outputs": [
        {
          "internalType": "uint256",
          "name": "",
          "type": "uint256"
        }
      ],
      "stateMutability": "view",
      "type": "function"
    },
    {
      "inputs": [
        {
          "internalType": "uint256",
          "name": "",
          "type": "uint256"
        }
      ],
      "name": "_idsForSale",
      "outputs": [
        {
          "internalType": "uint256",
          "name": "",
          "type": "uint256"
        }
      ],
      "stateMutability": "view",
      "type": "function"
    },
    {
      "inputs": [
        {
          "internalType": "address",
          "name": "",
          "type": "address"
        }
      ],
      "name": "_pendingWithdrawals",
      "outputs": [
        {
          "internalType": "uint256",
          "name": "",
          "type": "uint256"
        }
      ],
      "stateMutability": "view",
      "type": "function"
    },
    {
      "inputs": [
        {
          "internalType": "uint256",
          "name": "",
          "type": "uint256"
        }
      ],
      "name": "_pokBreedsTo",
      "outputs": [
        {
          "internalType": "bytes32",
          "name": "",
          "type": "bytes32"
        }
      ],
      "stateMutability": "view",
      "type": "function"
    },
    {
      "inputs": [
        {
          "internalType": "uint256",
          "name": "",
          "type": "uint256"
        }
      ],
      "name": "_pokEvolvesTo",
      "outputs": [
        {
          "internalType": "bytes32",
          "name": "",
          "type": "bytes32"
        }
      ],
      "stateMutability": "view",
      "type": "function"
    },
    {
      "inputs": [
        {
          "internalType": "uint256",
          "name": "",
          "type": "uint256"
        }
      ],
      "name": "_pokForSale",
      "outputs": [
        {
          "internalType": "bool",
          "name": "",
          "type": "bool"
        }
      ],
      "stateMutability": "view",
      "type": "function"
    },
    {
      "inputs": [
        {
          "internalType": "uint256",
          "name": "",
          "type": "uint256"
        }
      ],
      "name": "_pokGeneration",
      "outputs": [
        {
          "internalType": "uint256",
          "name": "",
          "type": "uint256"
        }
      ],
      "stateMutability": "view",
      "type": "function"
    },
    {
      "inputs": [
        {
          "internalType": "uint256",
          "name": "",
          "type": "uint256"
        }
      ],
      "name": "_pokLevel",
      "outputs": [
        {
          "internalType": "uint8",
          "name": "",
          "type": "uint8"
        }
      ],
      "stateMutability": "view",
      "type": "function"
    },
    {
      "inputs": [
        {
          "internalType": "uint256",
          "name": "",
          "type": "uint256"
        }
      ],
      "name": "_pokOwner",
      "outputs": [
        {
          "internalType": "address",
          "name": "",
          "type": "address"
        }
      ],
      "stateMutability": "view",
      "type": "function"
    },
    {
      "inputs": [
        {
          "internalType": "uint256",
          "name": "",
          "type": "uint256"
        }
      ],
      "name": "_pokPrice",
      "outputs": [
        {
          "internalType": "uint256",
          "name": "",
          "type": "uint256"
        }
      ],
      "stateMutability": "view",
      "type": "function"
    },
    {
      "inputs": [
        {
          "internalType": "uint256",
          "name": "",
          "type": "uint256"
        }
      ],
      "name": "_pokSpecies",
      "outputs": [
        {
          "internalType": "bytes32",
          "name": "",
          "type": "bytes32"
        }
      ],
      "stateMutability": "view",
      "type": "function"
    },
    {
      "inputs": [
        {
          "internalType": "uint256",
          "name": "",
          "type": "uint256"
        }
      ],
      "name": "_pokStunned",
      "outputs": [
        {
          "internalType": "bool",
          "name": "",
          "type": "bool"
        }
      ],
      "stateMutability": "view",
      "type": "function"
    },
    {
      "inputs": [
        {
          "internalType": "uint256",
          "name": "",
          "type": "uint256"
        }
      ],
      "name": "_pokTimesCanBreed",
      "outputs": [
        {
          "internalType": "uint8",
          "name": "",
          "type": "uint8"
        }
      ],
      "stateMutability": "view",
      "type": "function"
    },
    {
      "inputs": [
        {
          "internalType": "uint256",
          "name": "",
          "type": "uint256"
        }
      ],
      "name": "_pokType",
      "outputs": [
        {
          "internalType": "bytes32",
          "name": "",
          "type": "bytes32"
        }
      ],
      "stateMutability": "view",
      "type": "function"
    },
    {
      "inputs": [],
      "name": "_totalNumPokemon",
      "outputs": [
        {
          "internalType": "uint256",
          "name": "",
          "type": "uint256"
        }
      ],
      "stateMutability": "view",
      "type": "function"
    },
    {
      "stateMutability": "payable",
      "type": "receive"
    },
    {
      "inputs": [
        {
          "internalType": "uint256",
          "name": "id",
          "type": "uint256"
        }
      ],
      "name": "getOwner",
      "outputs": [
        {
          "internalType": "address",
          "name": "owner",
          "type": "address"
        }
      ],
      "stateMutability": "view",
      "type": "function"
    },
    {
      "inputs": [
        {
          "internalType": "bytes32",
          "name": "species",
          "type": "bytes32"
        },
        {
          "internalType": "bytes32",
          "name": "pokemonType",
          "type": "bytes32"
        },
        {
          "internalType": "uint256",
          "name": "price",
          "type": "uint256"
        },
        {
          "internalType": "uint8",
          "name": "level",
          "type": "uint8"
        },
        {
          "internalType": "bytes32",
          "name": "evolvesTo",
          "type": "bytes32"
        },
        {
          "internalType": "uint8",
          "name": "timesCanBreed",
          "type": "uint8"
        },
        {
          "internalType": "bytes32",
          "name": "breedsTo",
          "type": "bytes32"
        }
      ],
      "name": "addPokemon",
      "outputs": [
        {
          "internalType": "uint256",
          "name": "idOfNewPokemon",
          "type": "uint256"
        }
      ],
      "stateMutability": "nonpayable",
      "type": "function"
    },
    {
      "inputs": [
        {
          "internalType": "uint256",
          "name": "id",
          "type": "uint256"
        }
      ],
      "name": "buyPokemon",
      "outputs": [
        {
          "internalType": "uint256",
          "name": "",
          "type": "uint256"
        }
      ],
      "stateMutability": "payable",
      "type": "function"
    },
    {
      "inputs": [
        {
          "internalType": "uint256",
          "name": "id",
          "type": "uint256"
        },
        {
          "internalType": "uint256",
          "name": "amount",
          "type": "uint256"
        }
      ],
      "name": "sellPokemon",
      "outputs": [],
      "stateMutability": "nonpayable",
      "type": "function"
    },
    {
      "inputs": [],
      "name": "checkBalance",
      "outputs": [
        {
          "internalType": "uint256",
          "name": "balance",
          "type": "uint256"
        }
      ],
      "stateMutability": "view",
      "type": "function"
    },
    {
      "inputs": [],
      "name": "withdrawFunds",
      "outputs": [
        {
          "internalType": "uint256",
          "name": "balanceTransferred",
          "type": "uint256"
        }
      ],
      "stateMutability": "nonpayable",
      "type": "function"
    }
  ],
  "bytecode": "0x60806040523480156200001157600080fd5b50336000806101000a81548173ffffffffffffffffffffffffffffffffffffffff021916908373ffffffffffffffffffffffffffffffffffffffff160217905550600280600181540180825580915050600190039060005260206000200160007f54617075204b6f6b6f0000000000000000000000000000000000000000000000909190915055600280600181540180825580915050600190039060005260206000200160007f54617075204c656c650000000000000000000000000000000000000000000000909190915055600380600181540180825580915050600190039060005260206000200160007f456c656374726963000000000000000000000000000000000000000000000000909190915055600380600181540180825580915050600190039060005260206000200160007f466169727900000000000000000000000000000000000000000000000000000090919091505560405180604001604052806000809054906101000a900473ffffffffffffffffffffffffffffffffffffffff1673ffffffffffffffffffffffffffffffffffffffff1673ffffffffffffffffffffffffffffffffffffffff1681526020016000809054906101000a900473ffffffffffffffffffffffffffffffffffffffff1673ffffffffffffffffffffffffffffffffffffffff1673ffffffffffffffffffffffffffffffffffffffff1681525060049060026200022b92919062000492565b506040518060400160405280600115151515815260200160011515151581525060059060026200025d92919062000521565b506040518060400160405280670de0b6b3a764000067ffffffffffffffff168152602001670de0b6b3a764000067ffffffffffffffff168152506006906002620002a9929190620005ce565b506040518060400160405280600560ff168152602001600560ff168152506007906002620002d99291906200062c565b506040518060400160405280600015151515815260200160001515151581525060089060026200030b92919062000521565b50600980600181540180825580915050600190039060005260206000200160007f54617075204b6f6b6f0000000000000000000000000000000000000000000000909190915055600980600181540180825580915050600190039060005260206000200160007f54617075204c656c6500000000000000000000000000000000000000000000009091909150556040518060400160405280600060ff168152602001600060ff16815250600a906002620003c79291906200062c565b506040518060400160405280600060ff168152602001600060ff16815250600b906002620003f7929190620006da565b50600c80600181540180825580915050600190039060005260206000200160007f54617075204b6f6b6f0000000000000000000000000000000000000000000000909190915055600c80600181540180825580915050600190039060005260206000200160007f54617075204c656c650000000000000000000000000000000000000000000000909190915055600260018190555062000805565b8280548282559060005260206000209081019282156200050e579160200282015b828111156200050d5782518260006101000a81548173ffffffffffffffffffffffffffffffffffffffff021916908373ffffffffffffffffffffffffffffffffffffffff16021790555091602001919060010190620004b3565b5b5090506200051d919062000731565b5090565b82805482825590600052602060002090601f01602090048101928215620005bb5791602002820160005b838211156200058a57835183826101000a81548160ff02191690831515021790555092602001926001016020816000010492830192600103026200054b565b8015620005b95782816101000a81549060ff02191690556001016020816000010492830192600103026200058a565b505b509050620005ca919062000777565b5090565b82805482825590600052602060002090810192821562000619579160200282015b8281111562000618578251829067ffffffffffffffff16905591602001919060010190620005ef565b5b509050620006289190620007aa565b5090565b82805482825590600052602060002090601f01602090048101928215620006c75791602002820160005b838211156200069657835183826101000a81548160ff021916908360ff160217905550926020019260010160208160000104928301926001030262000656565b8015620006c55782816101000a81549060ff021916905560010160208160000104928301926001030262000696565b505b509050620006d69190620007d2565b5090565b8280548282559060005260206000209081019282156200071e579160200282015b828111156200071d578251829060ff16905591602001919060010190620006fb565b5b5090506200072d9190620007aa565b5090565b6200077491905b808211156200077057600081816101000a81549073ffffffffffffffffffffffffffffffffffffffff02191690555060010162000738565b5090565b90565b620007a791905b80821115620007a357600081816101000a81549060ff0219169055506001016200077e565b5090565b90565b620007cf91905b80821115620007cb576000816000905550600101620007b1565b5090565b90565b6200080291905b80821115620007fe57600081816101000a81549060ff021916905550600101620007d9565b5090565b90565b6117cf80620008156000396000f3fe6080604052600436106101395760003560e01c8063abe6ad69116100ab578063c41a360a1161006f578063c41a360a146106fa578063c71daccb14610775578063d6b6db6e146107a0578063d75efef0146107ef578063e85dd66e14610831578063f5e4beea146108765761018d565b8063abe6ad691461050f578063b3ac577c1461058a578063b55b96311461061b578063c30c29761461066a578063c3662b28146106955761018d565b80633415d199116100fd5780633415d1991461032757806372202b7b1461037c5780637aa4caa3146103cb57806381224d551461041a5780638ada0c461461046d5780639dac9e9a146104c05761018d565b806301bc45c91461019257806307855e75146101e95780630d04269b1461023857806319b6927f146102a757806324600fc3146102fc5761018d565b3661018d5734600f60003373ffffffffffffffffffffffffffffffffffffffff1673ffffffffffffffffffffffffffffffffffffffff16815260200190815260200160002060008282540192505081905550005b600080fd5b34801561019e57600080fd5b506101a76108c5565b604051808273ffffffffffffffffffffffffffffffffffffffff1673ffffffffffffffffffffffffffffffffffffffff16815260200191505060405180910390f35b3480156101f557600080fd5b506102226004803603602081101561020c57600080fd5b81019080803590602001909291905050506108ea565b6040518082815260200191505060405180910390f35b34801561024457600080fd5b506102916004803603604081101561025b57600080fd5b81019080803573ffffffffffffffffffffffffffffffffffffffff1690602001909291908035906020019092919050505061090b565b6040518082815260200191505060405180910390f35b3480156102b357600080fd5b506102e0600480360360208110156102ca57600080fd5b8101908080359060200190929190505050610939565b604051808260ff1660ff16815260200191505060405180910390f35b34801561030857600080fd5b5061031161096a565b6040518082815260200191505060405180910390f35b34801561033357600080fd5b506103606004803603602081101561034a57600080fd5b8101908080359060200190929190505050610ae0565b604051808260ff1660ff16815260200191505060405180910390f35b34801561038857600080fd5b506103b56004803603602081101561039f57600080fd5b8101908080359060200190929190505050610b11565b6040518082815260200191505060405180910390f35b3480156103d757600080fd5b50610404600480360360208110156103ee57600080fd5b8101908080359060200190929190505050610b32565b6040518082815260200191505060405180910390f35b34801561042657600080fd5b506104536004803603602081101561043d57600080fd5b8101908080359060200190929190505050610b53565b604051808215151515815260200191505060405180910390f35b34801561047957600080fd5b506104a66004803603602081101561049057600080fd5b8101908080359060200190929190505050610b84565b604051808215151515815260200191505060405180910390f35b3480156104cc57600080fd5b506104f9600480360360208110156104e357600080fd5b8101908080359060200190929190505050610bb5565b6040518082815260200191505060405180910390f35b34801561051b57600080fd5b506105486004803603602081101561053257600080fd5b8101908080359060200190929190505050610bd6565b604051808273ffffffffffffffffffffffffffffffffffffffff1673ffffffffffffffffffffffffffffffffffffffff16815260200191505060405180910390f35b34801561059657600080fd5b50610605600480360360e08110156105ad57600080fd5b81019080803590602001909291908035906020019092919080359060200190929190803560ff16906020019092919080359060200190929190803560ff16906020019092919080359060200190929190505050610c12565b6040518082815260200191505060405180910390f35b34801561062757600080fd5b506106546004803603602081101561063e57600080fd5b8101908080359060200190929190505050610f8a565b6040518082815260200191505060405180910390f35b34801561067657600080fd5b5061067f610fab565b6040518082815260200191505060405180910390f35b3480156106a157600080fd5b506106e4600480360360208110156106b857600080fd5b81019080803573ffffffffffffffffffffffffffffffffffffffff169060200190929190505050610fb1565b6040518082815260200191505060405180910390f35b34801561070657600080fd5b506107336004803603602081101561071d57600080fd5b8101908080359060200190929190505050610fc9565b604051808273ffffffffffffffffffffffffffffffffffffffff1673ffffffffffffffffffffffffffffffffffffffff16815260200191505060405180910390f35b34801561078157600080fd5b5061078a611090565b6040518082815260200191505060405180910390f35b3480156107ac57600080fd5b506107d9600480360360208110156107c357600080fd5b81019080803590602001909291905050506110d7565b6040518082815260200191505060405180910390f35b61081b6004803603602081101561080557600080fd5b81019080803590602001909291905050506110f8565b6040518082815260200191505060405180910390f35b34801561083d57600080fd5b506108746004803603604081101561085457600080fd5b81019080803590602001909291908035906020019092919050505061154b565b005b34801561088257600080fd5b506108af6004803603602081101561089957600080fd5b8101908080359060200190929190505050611701565b6040518082815260200191505060405180910390f35b6000809054906101000a900473ffffffffffffffffffffffffffffffffffffffff1681565b600d81815481106108f757fe5b906000526020600020016000915090505481565b600e602052816000526040600020818154811061092457fe5b90600052602060002001600091509150505481565b600a818154811061094657fe5b9060005260206000209060209182820401919006915054906101000a900460ff1681565b600080600f60003373ffffffffffffffffffffffffffffffffffffffff1673ffffffffffffffffffffffffffffffffffffffff1681526020019081526020016000205411610a03576040517f08c379a00000000000000000000000000000000000000000000000000000000081526004018080602001828103825260258152602001806117756025913960400191505060405180910390fd5b6000600f60003373ffffffffffffffffffffffffffffffffffffffff1673ffffffffffffffffffffffffffffffffffffffff1681526020019081526020016000205490506000600f60003373ffffffffffffffffffffffffffffffffffffffff1673ffffffffffffffffffffffffffffffffffffffff1681526020019081526020016000208190555060003390508073ffffffffffffffffffffffffffffffffffffffff166108fc839081150290604051600060405180830381858888f19350505050158015610ad7573d6000803e3d6000fd5b50819250505090565b60078181548110610aed57fe5b9060005260206000209060209182820401919006915054906101000a900460ff1681565b60098181548110610b1e57fe5b906000526020600020016000915090505481565b600b8181548110610b3f57fe5b906000526020600020016000915090505481565b60058181548110610b6057fe5b9060005260206000209060209182820401919006915054906101000a900460ff1681565b60088181548110610b9157fe5b9060005260206000209060209182820401919006915054906101000a900460ff1681565b60038181548110610bc257fe5b906000526020600020016000915090505481565b60048181548110610be357fe5b906000526020600020016000915054906101000a900473ffffffffffffffffffffffffffffffffffffffff1681565b60008060009054906101000a900473ffffffffffffffffffffffffffffffffffffffff1673ffffffffffffffffffffffffffffffffffffffff163373ffffffffffffffffffffffffffffffffffffffff1614610cb9576040517f08c379a000000000000000000000000000000000000000000000000000000000815260040180806020018281038252602781526020018061174e6027913960400191505060405180910390fd5b600180600082825401925050819055506002889080600181540180825580915050600190039060005260206000200160009091909190915055600387908060018154018082558091505060019003906000526020600020016000909190919091505560046000809054906101000a900473ffffffffffffffffffffffffffffffffffffffff169080600181540180825580915050600190039060005260206000200160009091909190916101000a81548173ffffffffffffffffffffffffffffffffffffffff021916908373ffffffffffffffffffffffffffffffffffffffff1602179055506005600090806001815401808255809150506001900390600052602060002090602091828204019190069091909190916101000a81548160ff021916908315150217905550600686908060018154018082558091505060019003906000526020600020016000909190919091505560078590806001815401808255809150506001900390600052602060002090602091828204019190069091909190916101000a81548160ff021916908360ff1602179055506008600090806001815401808255809150506001900390600052602060002090602091828204019190069091909190916101000a81548160ff0219169083151502179055506009849080600181540180825580915050600190039060005260206000200160009091909190915055600a8390806001815401808255809150506001900390600052602060002090602091828204019190069091909190916101000a81548160ff021916908360ff160217905550600b60009080600181540180825580915050600190039060005260206000200160009091909190915055600c82908060018154018082558091505060019003906000526020600020016000909190919091505560015460028054905014610f6857fe5b60015460048054905014610f7857fe5b60018054039050979650505050505050565b600c8181548110610f9757fe5b906000526020600020016000915090505481565b60015481565b600f6020528060005260406000206000915090505481565b60008160008110158015610fde575060015481105b611050576040517f08c379a00000000000000000000000000000000000000000000000000000000081526004018080602001828103825260188152602001807f506f6b656d6f6e206964206f7574206f6620626f756e6473000000000000000081525060200191505060405180910390fd5b6004838154811061105d57fe5b9060005260206000200160009054906101000a900473ffffffffffffffffffffffffffffffffffffffff16915050919050565b6000600f60003373ffffffffffffffffffffffffffffffffffffffff1673ffffffffffffffffffffffffffffffffffffffff16815260200190815260200160002054905090565b600681815481106110e457fe5b906000526020600020016000915090505481565b6000816000811015801561110d575060015481105b61117f576040517f08c379a00000000000000000000000000000000000000000000000000000000081526004018080602001828103825260188152602001807f506f6b656d6f6e206964206f7574206f6620626f756e6473000000000000000081525060200191505060405180910390fd5b3373ffffffffffffffffffffffffffffffffffffffff16600484815481106111a357fe5b9060005260206000200160009054906101000a900473ffffffffffffffffffffffffffffffffffffffff1673ffffffffffffffffffffffffffffffffffffffff161415611258576040517f08c379a000000000000000000000000000000000000000000000000000000000815260040180806020018281038252601c8152602001807f596f7520616c7265616479206f776e207468697320706f6b656d6f6e0000000081525060200191505060405180910390fd5b346006848154811061126657fe5b9060005260206000200154146112c7576040517f08c379a000000000000000000000000000000000000000000000000000000000815260040180806020018281038252602b815260200180611723602b913960400191505060405180910390fd5b600583815481106112d457fe5b90600052602060002090602091828204019190069054906101000a900460ff16611366576040517f08c379a000000000000000000000000000000000000000000000000000000000815260040180806020018281038252601c8152602001807f5468697320706f6b656d6f6e206973206e6f7420666f722073616c650000000081525060200191505060405180910390fd5b60006004848154811061137557fe5b9060005260206000200160009054906101000a900473ffffffffffffffffffffffffffffffffffffffff16905034600f60008373ffffffffffffffffffffffffffffffffffffffff1673ffffffffffffffffffffffffffffffffffffffff1681526020019081526020016000206000828254019250508190555033600485815481106113fd57fe5b9060005260206000200160006101000a81548173ffffffffffffffffffffffffffffffffffffffff021916908373ffffffffffffffffffffffffffffffffffffffff16021790555060006005858154811061145457fe5b90600052602060002090602091828204019190066101000a81548160ff02191690831515021790555060006006858154811061148c57fe5b90600052602060002001819055507f46661dab58311a6838247afecbee792192b4f27fc8b3e7168c66bc55ec2e404e81338634604051808573ffffffffffffffffffffffffffffffffffffffff1673ffffffffffffffffffffffffffffffffffffffff1681526020018473ffffffffffffffffffffffffffffffffffffffff1673ffffffffffffffffffffffffffffffffffffffff16815260200183815260200182815260200194505050505060405180910390a18392505050919050565b816000811015801561155e575060015481105b6115d0576040517f08c379a00000000000000000000000000000000000000000000000000000000081526004018080602001828103825260188152602001807f506f6b656d6f6e206964206f7574206f6620626f756e6473000000000000000081525060200191505060405180910390fd5b600483815481106115dd57fe5b9060005260206000200160009054906101000a900473ffffffffffffffffffffffffffffffffffffffff1673ffffffffffffffffffffffffffffffffffffffff163373ffffffffffffffffffffffffffffffffffffffff16146116a8576040517f08c379a000000000000000000000000000000000000000000000000000000000815260040180806020018281038252601b8152602001807f596f7520646f206e6f74206f776e207468697320706f6b656d6f6e000000000081525060200191505060405180910390fd5b6001600584815481106116b757fe5b90600052602060002090602091828204019190066101000a81548160ff02191690831515021790555081600684815481106116ee57fe5b9060005260206000200181905550505050565b6002818154811061170e57fe5b90600052602060002001600091509050548156fe4e6f207061796d656e74207265636569766564206f722077726f6e67207061796d656e7420616d6f756e744f6e6c792067616d652061646d696e2063616e2063616c6c20746869732066756e6374696f6e2e596f7520646f206e6f74206861766520616e792066756e647320746f207769746864726177a26469706673582212203637e713409f963c5ac73999e32fbe18679c0196a59c846f1cf2fb2e10171af564736f6c63430006020033",
  "source": "pragma solidity >=0.6.1;\r\n\r\ncontract Cryptomon {\r\n    address public _admin;\r\n\r\n    uint public _totalNumPokemon;\r\n    bytes32[] public _pokSpecies;\r\n    bytes32[] public _pokType;\r\n    address[] public _pokOwner;\r\n    bool[] public _pokForSale;\r\n    uint[] public _pokPrice;\r\n    uint8[] public _pokLevel;\r\n    bool[] public _pokStunned;\r\n    bytes32[] public _pokEvolvesTo;\r\n    uint8[] public _pokTimesCanBreed;\r\n    uint[] public _pokGeneration;\r\n    bytes32[] public _pokBreedsTo;\r\n\r\n    uint[] public _idsForSale;\r\n    mapping(address => uint[]) public _idsByOwner;\r\n\r\n    mapping (address => uint) public _pendingWithdrawals;\r\n\r\n    event Purchase(address from, address to, uint id, uint amount);\r\n\r\n    modifier adminOnly() {\r\n        require(msg.sender == _admin, \"Only game admin can call this function.\");\r\n        _;\r\n    }\r\n\r\n    modifier checkPokemonId(uint id) {\r\n        require(id >= 0 && id < _totalNumPokemon, \"Pokemon id out of bounds\");\r\n        _;\r\n    }\r\n\r\n    constructor() public {\r\n        // TODO: refactor\r\n        _admin = msg.sender;\r\n        _pokSpecies.push(\"Tapu Koko\");\r\n        _pokSpecies.push(\"Tapu Lele\");\r\n        _pokType.push(\"Electric\");\r\n        _pokType.push(\"Fairy\");\r\n        _pokOwner = [_admin, _admin];\r\n        _pokForSale = [true, true];\r\n        _pokPrice = [1 ether, 1 ether];\r\n        _pokLevel = [5, 5];\r\n        _pokStunned = [false, false];\r\n        _pokEvolvesTo.push(\"Tapu Koko\");\r\n        _pokEvolvesTo.push(\"Tapu Lele\");\r\n        _pokTimesCanBreed = [0, 0];\r\n        _pokGeneration = [0, 0];\r\n        _pokBreedsTo.push(\"Tapu Koko\");\r\n        _pokBreedsTo.push(\"Tapu Lele\");\r\n        _totalNumPokemon = 2;\r\n    }\r\n\r\n    receive () external payable {\r\n        _pendingWithdrawals[msg.sender] += msg.value;\r\n    }\r\n\r\n    function getOwner(uint id) external view checkPokemonId(id) returns (address owner) {\r\n        return _pokOwner[id];\r\n    }\r\n\r\n    // function getIdsForSale() public view returns (uint[] memory ids) {\r\n    //     for (uint id = 0; id < _pokemons.length; id++) {\r\n    //         if(_pokemons[id].forSale){\r\n    //             ids.push(id);\r\n    //         }\r\n    //     }\r\n    //     return ids;\r\n    // }\r\n\r\n    // function getIdsOwnedBy(address account) public view returns (uint[] memory ids) {\r\n    //     for (uint id = 0; id < _pokemons.length; id++) {\r\n    //         if(_pokemons[id].owner == account){\r\n    //             ids.push(id);\r\n    //         }\r\n    //     }\r\n    //     return ids;\r\n    // }\r\n\r\n    function addPokemon(\r\n        bytes32 species,\r\n        bytes32 pokemonType,\r\n        uint price,\r\n        uint8 level,\r\n        bytes32 evolvesTo,\r\n        uint8 timesCanBreed,\r\n        bytes32 breedsTo\r\n    ) public adminOnly() returns (uint idOfNewPokemon) {\r\n        _totalNumPokemon += 1;\r\n        _pokSpecies.push(species);\r\n        _pokType.push(pokemonType);\r\n        _pokOwner.push(_admin);\r\n        _pokForSale.push(false);\r\n        _pokPrice.push(price);\r\n        _pokLevel.push(level);\r\n        _pokStunned.push(false);\r\n        _pokEvolvesTo.push(evolvesTo);\r\n        _pokTimesCanBreed.push(timesCanBreed);\r\n        _pokGeneration.push(0);\r\n        _pokBreedsTo.push(breedsTo);\r\n        assert(_pokSpecies.length == _totalNumPokemon);\r\n        assert(_pokOwner.length == _totalNumPokemon);\r\n        return _totalNumPokemon - 1;\r\n    }\r\n\r\n    function buyPokemon(uint id) external payable checkPokemonId(id) returns (uint) {\r\n        require(_pokOwner[id] != msg.sender, \"You already own this pokemon\");\r\n        require(_pokPrice[id] == msg.value, \"No payment received or wrong payment amount\");\r\n        require(_pokForSale[id], \"This pokemon is not for sale\");\r\n        address seller = _pokOwner[id];\r\n        _pendingWithdrawals[seller] += msg.value;\r\n        _pokOwner[id] = msg.sender;\r\n        _pokForSale[id] = false;\r\n        _pokPrice[id] = 0;\r\n        emit Purchase(seller, msg.sender, id, msg.value);\r\n        return id;\r\n    }\r\n\r\n    function sellPokemon(uint id, uint amount) external checkPokemonId(id) {\r\n        require(msg.sender == _pokOwner[id], \"You do not own this pokemon\");\r\n        _pokForSale[id] = true;\r\n        _pokPrice[id] = amount;\r\n    }\r\n\r\n    function checkBalance() external view returns (uint balance) {\r\n        return _pendingWithdrawals[msg.sender];\r\n    }\r\n\r\n    function withdrawFunds() external returns (uint balanceTransferred) {\r\n        require(_pendingWithdrawals[msg.sender] > 0, \"You do not have any funds to withdraw\");\r\n        uint amount = _pendingWithdrawals[msg.sender];\r\n        _pendingWithdrawals[msg.sender] = 0;\r\n        address payable recipient = msg.sender;\r\n        recipient.transfer(amount);\r\n        return amount;\r\n    }\r\n\r\n\r\n}",
  "sourcePath": "C:/Users/harry/Dev/cryptomon/contracts/Cryptomon.sol",
  "compiler": {
    "name": "solc",
    "version": "0.6.2+commit.bacdbe57.Emscripten.clang"
  },
  "schemaVersion": "3.0.22",
  "updatedAt": "2020-02-03T21:18:06.519Z",
  "devdoc": {
    "methods": {}
  },
  "userdoc": {
    "methods": {}
  }
}