{
  "contractName": "Cryptomon",
  "abi": [
    {
      "inputs": [],
      "payable": false,
      "stateMutability": "nonpayable",
      "type": "constructor"
    },
    {
      "constant": true,
      "inputs": [],
      "name": "_admin",
      "outputs": [
        {
          "internalType": "address",
          "name": "",
          "type": "address"
        }
      ],
      "payable": false,
      "stateMutability": "view",
      "type": "function"
    },
    {
      "constant": true,
      "inputs": [
        {
          "internalType": "address",
          "name": "",
          "type": "address"
        },
        {
          "internalType": "uint256",
          "name": "",
          "type": "uint256"
        }
      ],
      "name": "_idsByOwner",
      "outputs": [
        {
          "internalType": "uint256",
          "name": "",
          "type": "uint256"
        }
      ],
      "payable": false,
      "stateMutability": "view",
      "type": "function"
    },
    {
      "constant": true,
      "inputs": [
        {
          "internalType": "uint256",
          "name": "",
          "type": "uint256"
        }
      ],
      "name": "_idsForSale",
      "outputs": [
        {
          "internalType": "uint256",
          "name": "",
          "type": "uint256"
        }
      ],
      "payable": false,
      "stateMutability": "view",
      "type": "function"
    },
    {
      "constant": true,
      "inputs": [
        {
          "internalType": "address",
          "name": "",
          "type": "address"
        }
      ],
      "name": "_pendingWithdrawals",
      "outputs": [
        {
          "internalType": "uint256",
          "name": "",
          "type": "uint256"
        }
      ],
      "payable": false,
      "stateMutability": "view",
      "type": "function"
    },
    {
      "constant": true,
      "inputs": [
        {
          "internalType": "uint256",
          "name": "",
          "type": "uint256"
        }
      ],
      "name": "_pokBreedsTo",
      "outputs": [
        {
          "internalType": "bytes32",
          "name": "",
          "type": "bytes32"
        }
      ],
      "payable": false,
      "stateMutability": "view",
      "type": "function"
    },
    {
      "constant": true,
      "inputs": [
        {
          "internalType": "uint256",
          "name": "",
          "type": "uint256"
        }
      ],
      "name": "_pokEvolvesTo",
      "outputs": [
        {
          "internalType": "bytes32",
          "name": "",
          "type": "bytes32"
        }
      ],
      "payable": false,
      "stateMutability": "view",
      "type": "function"
    },
    {
      "constant": true,
      "inputs": [
        {
          "internalType": "uint256",
          "name": "",
          "type": "uint256"
        }
      ],
      "name": "_pokForSale",
      "outputs": [
        {
          "internalType": "bool",
          "name": "",
          "type": "bool"
        }
      ],
      "payable": false,
      "stateMutability": "view",
      "type": "function"
    },
    {
      "constant": true,
      "inputs": [
        {
          "internalType": "uint256",
          "name": "",
          "type": "uint256"
        }
      ],
      "name": "_pokGeneration",
      "outputs": [
        {
          "internalType": "uint256",
          "name": "",
          "type": "uint256"
        }
      ],
      "payable": false,
      "stateMutability": "view",
      "type": "function"
    },
    {
      "constant": true,
      "inputs": [
        {
          "internalType": "uint256",
          "name": "",
          "type": "uint256"
        }
      ],
      "name": "_pokLevel",
      "outputs": [
        {
          "internalType": "uint8",
          "name": "",
          "type": "uint8"
        }
      ],
      "payable": false,
      "stateMutability": "view",
      "type": "function"
    },
    {
      "constant": true,
      "inputs": [
        {
          "internalType": "uint256",
          "name": "",
          "type": "uint256"
        }
      ],
      "name": "_pokOwner",
      "outputs": [
        {
          "internalType": "address",
          "name": "",
          "type": "address"
        }
      ],
      "payable": false,
      "stateMutability": "view",
      "type": "function"
    },
    {
      "constant": true,
      "inputs": [
        {
          "internalType": "uint256",
          "name": "",
          "type": "uint256"
        }
      ],
      "name": "_pokPrice",
      "outputs": [
        {
          "internalType": "uint256",
          "name": "",
          "type": "uint256"
        }
      ],
      "payable": false,
      "stateMutability": "view",
      "type": "function"
    },
    {
      "constant": true,
      "inputs": [
        {
          "internalType": "uint256",
          "name": "",
          "type": "uint256"
        }
      ],
      "name": "_pokSpecies",
      "outputs": [
        {
          "internalType": "bytes32",
          "name": "",
          "type": "bytes32"
        }
      ],
      "payable": false,
      "stateMutability": "view",
      "type": "function"
    },
    {
      "constant": true,
      "inputs": [
        {
          "internalType": "uint256",
          "name": "",
          "type": "uint256"
        }
      ],
      "name": "_pokStunned",
      "outputs": [
        {
          "internalType": "bool",
          "name": "",
          "type": "bool"
        }
      ],
      "payable": false,
      "stateMutability": "view",
      "type": "function"
    },
    {
      "constant": true,
      "inputs": [
        {
          "internalType": "uint256",
          "name": "",
          "type": "uint256"
        }
      ],
      "name": "_pokTimesCanBreed",
      "outputs": [
        {
          "internalType": "uint8",
          "name": "",
          "type": "uint8"
        }
      ],
      "payable": false,
      "stateMutability": "view",
      "type": "function"
    },
    {
      "constant": true,
      "inputs": [
        {
          "internalType": "uint256",
          "name": "",
          "type": "uint256"
        }
      ],
      "name": "_pokType",
      "outputs": [
        {
          "internalType": "bytes32",
          "name": "",
          "type": "bytes32"
        }
      ],
      "payable": false,
      "stateMutability": "view",
      "type": "function"
    },
    {
      "constant": true,
      "inputs": [],
      "name": "_totalNumPokemon",
      "outputs": [
        {
          "internalType": "uint256",
          "name": "",
          "type": "uint256"
        }
      ],
      "payable": false,
      "stateMutability": "view",
      "type": "function"
    },
    {
      "constant": false,
      "inputs": [
        {
          "internalType": "bytes32",
          "name": "species",
          "type": "bytes32"
        },
        {
          "internalType": "bytes32",
          "name": "pokemonType",
          "type": "bytes32"
        },
        {
          "internalType": "uint256",
          "name": "price",
          "type": "uint256"
        },
        {
          "internalType": "uint8",
          "name": "level",
          "type": "uint8"
        },
        {
          "internalType": "bytes32",
          "name": "evolvesTo",
          "type": "bytes32"
        },
        {
          "internalType": "uint8",
          "name": "timesCanBreed",
          "type": "uint8"
        },
        {
          "internalType": "bytes32",
          "name": "breedsTo",
          "type": "bytes32"
        }
      ],
      "name": "addPokemon",
      "outputs": [
        {
          "internalType": "uint256",
          "name": "",
          "type": "uint256"
        }
      ],
      "payable": false,
      "stateMutability": "nonpayable",
      "type": "function"
    },
    {
      "constant": false,
      "inputs": [
        {
          "internalType": "uint256",
          "name": "id",
          "type": "uint256"
        }
      ],
      "name": "buyPokemon",
      "outputs": [
        {
          "internalType": "uint256",
          "name": "",
          "type": "uint256"
        }
      ],
      "payable": true,
      "stateMutability": "payable",
      "type": "function"
    },
    {
      "constant": false,
      "inputs": [
        {
          "internalType": "uint256",
          "name": "id",
          "type": "uint256"
        },
        {
          "internalType": "uint256",
          "name": "amount",
          "type": "uint256"
        }
      ],
      "name": "sellPokemon",
      "outputs": [],
      "payable": false,
      "stateMutability": "nonpayable",
      "type": "function"
    },
    {
      "constant": false,
      "inputs": [],
      "name": "withdrawFunds",
      "outputs": [],
      "payable": false,
      "stateMutability": "nonpayable",
      "type": "function"
    }
  ],
  "bytecode": "0x608060405234801561001057600080fd5b50336000806101000a81548173ffffffffffffffffffffffffffffffffffffffff021916908373ffffffffffffffffffffffffffffffffffffffff16021790555061112c806100606000396000f3fe60806040526004361061011f5760003560e01c80639dac9e9a116100a0578063c3662b2811610064578063c3662b2814610613578063d6b6db6e14610678578063d75efef0146106c7578063e85dd66e14610709578063f5e4beea1461074e5761011f565b80639dac9e9a1461043e578063abe6ad691461048d578063b3ac577c14610508578063b55b963114610599578063c30c2976146105e85761011f565b80633415d199116100e75780633415d199146102a557806372202b7b146102fa5780637aa4caa31461034957806381224d55146103985780638ada0c46146103eb5761011f565b806301bc45c91461012457806307855e751461017b5780630d04269b146101ca57806319b6927f1461023957806324600fc31461028e575b600080fd5b34801561013057600080fd5b5061013961079d565b604051808273ffffffffffffffffffffffffffffffffffffffff1673ffffffffffffffffffffffffffffffffffffffff16815260200191505060405180910390f35b34801561018757600080fd5b506101b46004803603602081101561019e57600080fd5b81019080803590602001909291905050506107c2565b6040518082815260200191505060405180910390f35b3480156101d657600080fd5b50610223600480360360408110156101ed57600080fd5b81019080803573ffffffffffffffffffffffffffffffffffffffff169060200190929190803590602001909291905050506107e3565b6040518082815260200191505060405180910390f35b34801561024557600080fd5b506102726004803603602081101561025c57600080fd5b8101908080359060200190929190505050610811565b604051808260ff1660ff16815260200191505060405180910390f35b34801561029a57600080fd5b506102a3610842565b005b3480156102b157600080fd5b506102de600480360360208110156102c857600080fd5b8101908080359060200190929190505050610915565b604051808260ff1660ff16815260200191505060405180910390f35b34801561030657600080fd5b506103336004803603602081101561031d57600080fd5b8101908080359060200190929190505050610946565b6040518082815260200191505060405180910390f35b34801561035557600080fd5b506103826004803603602081101561036c57600080fd5b8101908080359060200190929190505050610967565b6040518082815260200191505060405180910390f35b3480156103a457600080fd5b506103d1600480360360208110156103bb57600080fd5b8101908080359060200190929190505050610988565b604051808215151515815260200191505060405180910390f35b3480156103f757600080fd5b506104246004803603602081101561040e57600080fd5b81019080803590602001909291905050506109b9565b604051808215151515815260200191505060405180910390f35b34801561044a57600080fd5b506104776004803603602081101561046157600080fd5b81019080803590602001909291905050506109ea565b6040518082815260200191505060405180910390f35b34801561049957600080fd5b506104c6600480360360208110156104b057600080fd5b8101908080359060200190929190505050610a0b565b604051808273ffffffffffffffffffffffffffffffffffffffff1673ffffffffffffffffffffffffffffffffffffffff16815260200191505060405180910390f35b34801561051457600080fd5b50610583600480360360e081101561052b57600080fd5b81019080803590602001909291908035906020019092919080359060200190929190803560ff16906020019092919080359060200190929190803560ff16906020019092919080359060200190929190505050610a47565b6040518082815260200191505060405180910390f35b3480156105a557600080fd5b506105d2600480360360208110156105bc57600080fd5b8101908080359060200190929190505050610d21565b6040518082815260200191505060405180910390f35b3480156105f457600080fd5b506105fd610d42565b6040518082815260200191505060405180910390f35b34801561061f57600080fd5b506106626004803603602081101561063657600080fd5b81019080803573ffffffffffffffffffffffffffffffffffffffff169060200190929190505050610d48565b6040518082815260200191505060405180910390f35b34801561068457600080fd5b506106b16004803603602081101561069b57600080fd5b8101908080359060200190929190505050610d60565b6040518082815260200191505060405180910390f35b6106f3600480360360208110156106dd57600080fd5b8101908080359060200190929190505050610d81565b6040518082815260200191505060405180910390f35b34801561071557600080fd5b5061074c6004803603604081101561072c57600080fd5b81019080803590602001909291908035906020019092919050505061102e565b005b34801561075a57600080fd5b506107876004803603602081101561077157600080fd5b8101908080359060200190929190505050611086565b6040518082815260200191505060405180910390f35b6000809054906101000a900473ffffffffffffffffffffffffffffffffffffffff1681565b600d81815481106107cf57fe5b906000526020600020016000915090505481565b600e60205281600052604060002081815481106107fc57fe5b90600052602060002001600091509150505481565b600a818154811061081e57fe5b9060005260206000209060209182820401919006915054906101000a900460ff1681565b6000600f60003373ffffffffffffffffffffffffffffffffffffffff1673ffffffffffffffffffffffffffffffffffffffff1681526020019081526020016000205490506000600f60003373ffffffffffffffffffffffffffffffffffffffff1673ffffffffffffffffffffffffffffffffffffffff168152602001908152602001600020819055503373ffffffffffffffffffffffffffffffffffffffff166108fc829081150290604051600060405180830381858888f19350505050158015610911573d6000803e3d6000fd5b5050565b6007818154811061092257fe5b9060005260206000209060209182820401919006915054906101000a900460ff1681565b6009818154811061095357fe5b906000526020600020016000915090505481565b600b818154811061097457fe5b906000526020600020016000915090505481565b6005818154811061099557fe5b9060005260206000209060209182820401919006915054906101000a900460ff1681565b600881815481106109c657fe5b9060005260206000209060209182820401919006915054906101000a900460ff1681565b600381815481106109f757fe5b906000526020600020016000915090505481565b60048181548110610a1857fe5b906000526020600020016000915054906101000a900473ffffffffffffffffffffffffffffffffffffffff1681565b6000600180600082825401925050819055506002889080600181540180825580915050906001820390600052602060002001600090919290919091505550600387908060018154018082558091505090600182039060005260206000200160009091929091909150555060046000809054906101000a900473ffffffffffffffffffffffffffffffffffffffff1690806001815401808255809150509060018203906000526020600020016000909192909190916101000a81548173ffffffffffffffffffffffffffffffffffffffff021916908373ffffffffffffffffffffffffffffffffffffffff1602179055505060056000908060018154018082558091505090600182039060005260206000209060209182820401919006909192909190916101000a81548160ff021916908315150217905550506006869080600181540180825580915050906001820390600052602060002001600090919290919091505550600785908060018154018082558091505090600182039060005260206000209060209182820401919006909192909190916101000a81548160ff021916908360ff1602179055505060086000908060018154018082558091505090600182039060005260206000209060209182820401919006909192909190916101000a81548160ff021916908315150217905550506009849080600181540180825580915050906001820390600052602060002001600090919290919091505550600a83908060018154018082558091505090600182039060005260206000209060209182820401919006909192909190916101000a81548160ff021916908360ff16021790555050600b60009080600181540180825580915050906001820390600052602060002001600090919290919091505550600c82908060018154018082558091505090600182039060005260206000200160009091929091909150555060006001805403905080915050979650505050505050565b600c8181548110610d2e57fe5b906000526020600020016000915090505481565b60015481565b600f6020528060005260406000206000915090505481565b60068181548110610d6d57fe5b906000526020600020016000915090505481565b6000808210158015610d94575060015482105b610e06576040517f08c379a00000000000000000000000000000000000000000000000000000000081526004018080602001828103825260108152602001807f6964206f7574206f6620626f756e64730000000000000000000000000000000081525060200191505060405180910390fd5b3460068381548110610e1457fe5b906000526020600020015414610e75576040517f08c379a000000000000000000000000000000000000000000000000000000000815260040180806020018281038252602b8152602001806110cd602b913960400191505060405180910390fd5b60058281548110610e8257fe5b90600052602060002090602091828204019190069054906101000a900460ff16610ef7576040517f08c379a00000000000000000000000000000000000000000000000000000000081526004018080602001828103825260258152602001806110a86025913960400191505060405180910390fd5b34600f600060048581548110610f0957fe5b9060005260206000200160009054906101000a900473ffffffffffffffffffffffffffffffffffffffff1673ffffffffffffffffffffffffffffffffffffffff1673ffffffffffffffffffffffffffffffffffffffff168152602001908152602001600020600082825401925050819055503360048381548110610f8957fe5b9060005260206000200160006101000a81548173ffffffffffffffffffffffffffffffffffffffff021916908373ffffffffffffffffffffffffffffffffffffffff160217905550600060058381548110610fe057fe5b90600052602060002090602091828204019190066101000a81548160ff02191690831515021790555060006006838154811061101857fe5b9060005260206000200181905550819050919050565b60016005838154811061103d57fe5b90600052602060002090602091828204019190066101000a81548160ff021916908315150217905550806006838154811061107457fe5b90600052602060002001819055505050565b6002818154811061109357fe5b90600052602060002001600091509050548156fe5468652073706563696669656420706f6b656d6f6e206973206e6f7420666f722073616c654e6f207061796d656e74207265636569766564206f722077726f6e67207061796d656e7420616d6f756e74a265627a7a723158205b70574b87b25182ab40b68d9958dc1ee9914bb60ea2f6302e831b434d1dc57e64736f6c63430005100032",
  "source": "pragma solidity ^0.5.0;\r\n\r\ncontract Cryptomon {\r\n    address public _admin;\r\n\r\n    uint public _totalNumPokemon;\r\n    bytes32[] public _pokSpecies;\r\n    bytes32[] public _pokType;\r\n    address[] public _pokOwner;\r\n    bool[] public _pokForSale;\r\n    uint[] public _pokPrice;\r\n    uint8[] public _pokLevel;\r\n    bool[] public _pokStunned;\r\n    bytes32[] public _pokEvolvesTo;\r\n    uint8[] public _pokTimesCanBreed;\r\n    uint[] public _pokGeneration;\r\n    bytes32[] public _pokBreedsTo;\r\n\r\n    uint[] public _idsForSale;\r\n    mapping(address => uint[]) public _idsByOwner;\r\n\r\n    mapping (address => uint) public _pendingWithdrawals;\r\n\r\n    modifier adminOnly() {\r\n        require(msg.sender == _admin, \"Only admin can call this function.\");\r\n        _;\r\n    }\r\n\r\n    constructor() public {\r\n        _admin = msg.sender;\r\n    }\r\n\r\n    // function getIdsForSale() public view returns (uint[] memory ids) {\r\n    //     for (uint id = 0; id < _pokemons.length; id++) {\r\n    //         if(_pokemons[id].forSale){\r\n    //             ids.push(id);\r\n    //         }\r\n    //     }\r\n    //     return ids;\r\n    // }\r\n\r\n    // function getIdsOwnedBy(address account) public view returns (uint[] memory ids) {\r\n    //     for (uint id = 0; id < _pokemons.length; id++) {\r\n    //         if(_pokemons[id].owner == account){\r\n    //             ids.push(id);\r\n    //         }\r\n    //     }\r\n    //     return ids;\r\n    // }\r\n\r\n    function addPokemon(\r\n        bytes32 species,\r\n        bytes32 pokemonType,\r\n        uint price,\r\n        uint8 level,\r\n        bytes32 evolvesTo,\r\n        uint8 timesCanBreed,\r\n        bytes32 breedsTo\r\n    ) external returns (uint) {\r\n        _totalNumPokemon += 1;\r\n        _pokSpecies.push(species);\r\n        _pokType.push(pokemonType);\r\n        _pokOwner.push(_admin);\r\n        _pokForSale.push(false);\r\n        _pokPrice.push(price);\r\n        _pokLevel.push(level);\r\n        _pokStunned.push(false);\r\n        _pokEvolvesTo.push(evolvesTo);\r\n        _pokTimesCanBreed.push(timesCanBreed);\r\n        _pokGeneration.push(0);\r\n        _pokBreedsTo.push(breedsTo);\r\n        uint idOfNewPokemon = _totalNumPokemon - 1;\r\n        return idOfNewPokemon;\r\n    }\r\n\r\n    function buyPokemon(uint id) external payable returns (uint) {\r\n        require(id >= 0 && id < _totalNumPokemon, \"id out of bounds\");\r\n        require(_pokPrice[id] == msg.value, \"No payment received or wrong payment amount\");\r\n        require(_pokForSale[id], \"The specified pokemon is not for sale\");\r\n        _pendingWithdrawals[_pokOwner[id]] += msg.value;\r\n        _pokOwner[id] = msg.sender;\r\n        _pokForSale[id] = false;\r\n        _pokPrice[id] = 0;\r\n        return id;\r\n    }\r\n\r\n    function sellPokemon(uint id, uint amount) external {\r\n        _pokForSale[id] = true;\r\n        _pokPrice[id] = amount;\r\n    }\r\n\r\n    function withdrawFunds() external {\r\n        uint amount = _pendingWithdrawals[msg.sender];\r\n        _pendingWithdrawals[msg.sender] = 0;\r\n        msg.sender.transfer(amount);\r\n    }\r\n}",
  "sourcePath": "C:/Users/harry/Dev/cryptomon/contracts/Cryptomon.sol",
  "compiler": {
    "name": "solc",
    "version": "0.5.16+commit.9c3226ce.Emscripten.clang"
  },
  "schemaVersion": "3.0.22",
  "updatedAt": "2020-02-03T13:51:36.434Z",
  "devdoc": {
    "methods": {}
  },
  "userdoc": {
    "methods": {}
  }
}