{
  "contractName": "Cryptomon",
  "abi": [
    {
      "inputs": [],
      "stateMutability": "nonpayable",
      "type": "constructor"
    },
    {
      "anonymous": false,
      "inputs": [
        {
          "indexed": false,
          "internalType": "uint256",
          "name": "attacker",
          "type": "uint256"
        },
        {
          "indexed": false,
          "internalType": "uint256",
          "name": "defender",
          "type": "uint256"
        },
        {
          "indexed": false,
          "internalType": "uint8",
          "name": "rand",
          "type": "uint8"
        },
        {
          "indexed": false,
          "internalType": "uint8",
          "name": "winRate256",
          "type": "uint8"
        },
        {
          "indexed": false,
          "internalType": "uint256",
          "name": "winner",
          "type": "uint256"
        }
      ],
      "name": "Fight",
      "type": "event"
    },
    {
      "anonymous": false,
      "inputs": [
        {
          "indexed": false,
          "internalType": "uint256",
          "name": "id",
          "type": "uint256"
        },
        {
          "indexed": false,
          "internalType": "uint256",
          "name": "amount",
          "type": "uint256"
        }
      ],
      "name": "ListedForSale",
      "type": "event"
    },
    {
      "anonymous": false,
      "inputs": [
        {
          "indexed": false,
          "internalType": "uint256",
          "name": "pokId",
          "type": "uint256"
        }
      ],
      "name": "PokemonAdded",
      "type": "event"
    },
    {
      "anonymous": false,
      "inputs": [
        {
          "indexed": false,
          "internalType": "address",
          "name": "seller",
          "type": "address"
        },
        {
          "indexed": false,
          "internalType": "address",
          "name": "buyer",
          "type": "address"
        },
        {
          "indexed": false,
          "internalType": "uint256",
          "name": "id",
          "type": "uint256"
        },
        {
          "indexed": false,
          "internalType": "uint256",
          "name": "amount",
          "type": "uint256"
        }
      ],
      "name": "Purchase",
      "type": "event"
    },
    {
      "anonymous": false,
      "inputs": [
        {
          "indexed": false,
          "internalType": "uint16",
          "name": "speciesId",
          "type": "uint16"
        }
      ],
      "name": "SpeciesDefined",
      "type": "event"
    },
    {
      "inputs": [],
      "name": "_admin",
      "outputs": [
        {
          "internalType": "address",
          "name": "",
          "type": "address"
        }
      ],
      "stateMutability": "view",
      "type": "function",
      "constant": true
    },
    {
      "inputs": [
        {
          "internalType": "address",
          "name": "",
          "type": "address"
        }
      ],
      "name": "_pendingWithdrawals",
      "outputs": [
        {
          "internalType": "uint256",
          "name": "",
          "type": "uint256"
        }
      ],
      "stateMutability": "view",
      "type": "function",
      "constant": true
    },
    {
      "inputs": [
        {
          "internalType": "uint256",
          "name": "",
          "type": "uint256"
        }
      ],
      "name": "_pokCanEvolve",
      "outputs": [
        {
          "internalType": "bool",
          "name": "",
          "type": "bool"
        }
      ],
      "stateMutability": "view",
      "type": "function",
      "constant": true
    },
    {
      "inputs": [
        {
          "internalType": "uint256",
          "name": "",
          "type": "uint256"
        }
      ],
      "name": "_pokForSale",
      "outputs": [
        {
          "internalType": "bool",
          "name": "",
          "type": "bool"
        }
      ],
      "stateMutability": "view",
      "type": "function",
      "constant": true
    },
    {
      "inputs": [
        {
          "internalType": "uint256",
          "name": "",
          "type": "uint256"
        }
      ],
      "name": "_pokGeneration",
      "outputs": [
        {
          "internalType": "uint256",
          "name": "",
          "type": "uint256"
        }
      ],
      "stateMutability": "view",
      "type": "function",
      "constant": true
    },
    {
      "inputs": [
        {
          "internalType": "uint256",
          "name": "",
          "type": "uint256"
        }
      ],
      "name": "_pokLevel",
      "outputs": [
        {
          "internalType": "uint8",
          "name": "",
          "type": "uint8"
        }
      ],
      "stateMutability": "view",
      "type": "function",
      "constant": true
    },
    {
      "inputs": [
        {
          "internalType": "uint256",
          "name": "",
          "type": "uint256"
        }
      ],
      "name": "_pokOwner",
      "outputs": [
        {
          "internalType": "address",
          "name": "",
          "type": "address"
        }
      ],
      "stateMutability": "view",
      "type": "function",
      "constant": true
    },
    {
      "inputs": [
        {
          "internalType": "uint256",
          "name": "",
          "type": "uint256"
        }
      ],
      "name": "_pokPrice",
      "outputs": [
        {
          "internalType": "uint256",
          "name": "",
          "type": "uint256"
        }
      ],
      "stateMutability": "view",
      "type": "function",
      "constant": true
    },
    {
      "inputs": [
        {
          "internalType": "uint256",
          "name": "",
          "type": "uint256"
        }
      ],
      "name": "_pokSpeciesId",
      "outputs": [
        {
          "internalType": "uint16",
          "name": "",
          "type": "uint16"
        }
      ],
      "stateMutability": "view",
      "type": "function",
      "constant": true
    },
    {
      "inputs": [
        {
          "internalType": "uint256",
          "name": "",
          "type": "uint256"
        }
      ],
      "name": "_pokStunned",
      "outputs": [
        {
          "internalType": "bool",
          "name": "",
          "type": "bool"
        }
      ],
      "stateMutability": "view",
      "type": "function",
      "constant": true
    },
    {
      "inputs": [
        {
          "internalType": "uint256",
          "name": "",
          "type": "uint256"
        }
      ],
      "name": "_pokTimesCanBreed",
      "outputs": [
        {
          "internalType": "uint8",
          "name": "",
          "type": "uint8"
        }
      ],
      "stateMutability": "view",
      "type": "function",
      "constant": true
    },
    {
      "inputs": [],
      "name": "_revivePrice",
      "outputs": [
        {
          "internalType": "uint256",
          "name": "",
          "type": "uint256"
        }
      ],
      "stateMutability": "view",
      "type": "function",
      "constant": true
    },
    {
      "inputs": [
        {
          "internalType": "uint16",
          "name": "",
          "type": "uint16"
        }
      ],
      "name": "_speciesBreedsTo",
      "outputs": [
        {
          "internalType": "uint16",
          "name": "",
          "type": "uint16"
        }
      ],
      "stateMutability": "view",
      "type": "function",
      "constant": true
    },
    {
      "inputs": [
        {
          "internalType": "uint16",
          "name": "",
          "type": "uint16"
        }
      ],
      "name": "_speciesEvolvesTo",
      "outputs": [
        {
          "internalType": "uint16",
          "name": "",
          "type": "uint16"
        }
      ],
      "stateMutability": "view",
      "type": "function",
      "constant": true
    },
    {
      "inputs": [
        {
          "internalType": "uint16",
          "name": "",
          "type": "uint16"
        }
      ],
      "name": "_speciesTimesCanBreed",
      "outputs": [
        {
          "internalType": "uint8",
          "name": "",
          "type": "uint8"
        }
      ],
      "stateMutability": "view",
      "type": "function",
      "constant": true
    },
    {
      "inputs": [
        {
          "internalType": "uint16",
          "name": "",
          "type": "uint16"
        }
      ],
      "name": "_speciesType",
      "outputs": [
        {
          "internalType": "uint8",
          "name": "",
          "type": "uint8"
        }
      ],
      "stateMutability": "view",
      "type": "function",
      "constant": true
    },
    {
      "inputs": [],
      "name": "_totalNumPokemon",
      "outputs": [
        {
          "internalType": "uint256",
          "name": "",
          "type": "uint256"
        }
      ],
      "stateMutability": "view",
      "type": "function",
      "constant": true
    },
    {
      "stateMutability": "payable",
      "type": "receive",
      "payable": true
    },
    {
      "inputs": [],
      "name": "addInitialPokemon",
      "outputs": [],
      "stateMutability": "nonpayable",
      "type": "function"
    },
    {
      "inputs": [
        {
          "internalType": "uint256",
          "name": "id",
          "type": "uint256"
        }
      ],
      "name": "getOwner",
      "outputs": [
        {
          "internalType": "address",
          "name": "owner",
          "type": "address"
        }
      ],
      "stateMutability": "view",
      "type": "function",
      "constant": true
    },
    {
      "inputs": [
        {
          "internalType": "uint16",
          "name": "speciesId",
          "type": "uint16"
        },
        {
          "internalType": "uint8",
          "name": "speciesType",
          "type": "uint8"
        },
        {
          "internalType": "uint16",
          "name": "evolvesTo",
          "type": "uint16"
        },
        {
          "internalType": "uint16",
          "name": "breedsTo",
          "type": "uint16"
        },
        {
          "internalType": "uint8",
          "name": "timesCanBreed",
          "type": "uint8"
        }
      ],
      "name": "defineSpecies",
      "outputs": [],
      "stateMutability": "nonpayable",
      "type": "function"
    },
    {
      "inputs": [
        {
          "internalType": "uint16",
          "name": "species",
          "type": "uint16"
        },
        {
          "internalType": "uint256",
          "name": "price",
          "type": "uint256"
        },
        {
          "internalType": "bool",
          "name": "forSale",
          "type": "bool"
        },
        {
          "internalType": "uint8",
          "name": "level",
          "type": "uint8"
        }
      ],
      "name": "addPokemon",
      "outputs": [],
      "stateMutability": "nonpayable",
      "type": "function"
    },
    {
      "inputs": [
        {
          "internalType": "uint256",
          "name": "price",
          "type": "uint256"
        }
      ],
      "name": "setRevivePrice",
      "outputs": [],
      "stateMutability": "nonpayable",
      "type": "function"
    },
    {
      "inputs": [
        {
          "internalType": "uint256",
          "name": "id",
          "type": "uint256"
        }
      ],
      "name": "buyPokemon",
      "outputs": [],
      "stateMutability": "payable",
      "type": "function",
      "payable": true
    },
    {
      "inputs": [
        {
          "internalType": "uint256",
          "name": "id",
          "type": "uint256"
        },
        {
          "internalType": "uint256",
          "name": "amount",
          "type": "uint256"
        }
      ],
      "name": "sellPokemon",
      "outputs": [],
      "stateMutability": "nonpayable",
      "type": "function"
    },
    {
      "inputs": [
        {
          "internalType": "uint256",
          "name": "attacker",
          "type": "uint256"
        },
        {
          "internalType": "uint256",
          "name": "defender",
          "type": "uint256"
        }
      ],
      "name": "fight",
      "outputs": [],
      "stateMutability": "nonpayable",
      "type": "function"
    },
    {
      "inputs": [
        {
          "internalType": "uint256",
          "name": "id",
          "type": "uint256"
        }
      ],
      "name": "evolve",
      "outputs": [],
      "stateMutability": "nonpayable",
      "type": "function"
    },
    {
      "inputs": [
        {
          "internalType": "uint256",
          "name": "id",
          "type": "uint256"
        }
      ],
      "name": "revive",
      "outputs": [],
      "stateMutability": "payable",
      "type": "function",
      "payable": true
    },
    {
      "inputs": [
        {
          "internalType": "uint256",
          "name": "id",
          "type": "uint256"
        }
      ],
      "name": "breed",
      "outputs": [],
      "stateMutability": "nonpayable",
      "type": "function"
    },
    {
      "inputs": [],
      "name": "checkBalance",
      "outputs": [
        {
          "internalType": "uint256",
          "name": "balance",
          "type": "uint256"
        }
      ],
      "stateMutability": "view",
      "type": "function",
      "constant": true
    },
    {
      "inputs": [],
      "name": "withdrawFunds",
      "outputs": [],
      "stateMutability": "nonpayable",
      "type": "function"
    }
  ],
  "bytecode": "0x6080604052662386f26fc1000060105534801561001b57600080fd5b50336000806101000a81548173ffffffffffffffffffffffffffffffffffffffff021916908373ffffffffffffffffffffffffffffffffffffffff1602179055506000600181905550612f01806100736000396000f3fe6080604052600436106101ee576000357c010000000000000000000000000000000000000000000000000000000090048063947c37c411610114578063c41a360a116100b2578063d75efef011610081578063d75efef014610a0d578063e85dd66e14610a3b578063ef9b04de14610a80578063f119f56714610adb57610242565b8063c41a360a146108d3578063c71daccb1461094e578063ca39e5ef14610979578063d6b6db6e146109be57610242565b8063abe6ad69116100ee578063abe6ad691461078d578063af9a1cd214610808578063c30c297614610843578063c3662b281461086e57610242565b8063947c37c41461066c578063a821b448146106c5578063ab1e500c1461071857610242565b806366552aed1161018c578063818b832e1161015b578063818b832e14610567578063820cec9f146105c05780638ada0c46146105eb5780638baecc211461063e57610242565b806366552aed146104135780637742accf1461046a5780637aa4caa3146104c557806381224d551461051457610242565b80632901a4e3116101c85780632901a4e31461030a5780633415d199146103455780635e5282d21461039a578063615a7750146103b157610242565b806301bc45c91461024757806319b6927f1461029e57806324600fc3146102f357610242565b366102425734600f60003373ffffffffffffffffffffffffffffffffffffffff1673ffffffffffffffffffffffffffffffffffffffff16815260200190815260200160002060008282540192505081905550005b600080fd5b34801561025357600080fd5b5061025c610b16565b604051808273ffffffffffffffffffffffffffffffffffffffff1673ffffffffffffffffffffffffffffffffffffffff16815260200191505060405180910390f35b3480156102aa57600080fd5b506102d7600480360360208110156102c157600080fd5b8101908080359060200190929190505050610b3b565b604051808260ff1660ff16815260200191505060405180910390f35b3480156102ff57600080fd5b50610308610b6c565b005b34801561031657600080fd5b506103436004803603602081101561032d57600080fd5b8101908080359060200190929190505050610cdd565b005b34801561035157600080fd5b5061037e6004803603602081101561036857600080fd5b8101908080359060200190929190505050610d8c565b604051808260ff1660ff16815260200191505060405180910390f35b3480156103a657600080fd5b506103af610dbd565b005b3480156103bd57600080fd5b50610411600480360360808110156103d457600080fd5b81019080803561ffff16906020019092919080359060200190929190803515159060200190929190803560ff169060200190929190505050610f2c565b005b34801561041f57600080fd5b5061044c6004803603602081101561043657600080fd5b8101908080359060200190929190505050611456565b604051808261ffff1661ffff16815260200191505060405180910390f35b34801561047657600080fd5b506104a76004803603602081101561048d57600080fd5b81019080803561ffff16906020019092919050505061148b565b604051808261ffff1661ffff16815260200191505060405180910390f35b3480156104d157600080fd5b506104fe600480360360208110156104e857600080fd5b81019080803590602001909291905050506114ac565b6040518082815260200191505060405180910390f35b34801561052057600080fd5b5061054d6004803603602081101561053757600080fd5b81019080803590602001909291905050506114cd565b604051808215151515815260200191505060405180910390f35b34801561057357600080fd5b506105a46004803603602081101561058a57600080fd5b81019080803561ffff1690602001909291905050506114fe565b604051808260ff1660ff16815260200191505060405180910390f35b3480156105cc57600080fd5b506105d561151e565b6040518082815260200191505060405180910390f35b3480156105f757600080fd5b506106246004803603602081101561060e57600080fd5b8101908080359060200190929190505050611524565b604051808215151515815260200191505060405180910390f35b61066a6004803603602081101561065457600080fd5b8101908080359060200190929190505050611555565b005b34801561067857600080fd5b506106a96004803603602081101561068f57600080fd5b81019080803561ffff169060200190929190505050611857565b604051808260ff1660ff16815260200191505060405180910390f35b3480156106d157600080fd5b506106fe600480360360208110156106e857600080fd5b8101908080359060200190929190505050611877565b604051808215151515815260200191505060405180910390f35b34801561072457600080fd5b5061078b600480360360a081101561073b57600080fd5b81019080803561ffff169060200190929190803560ff169060200190929190803561ffff169060200190929190803561ffff169060200190929190803560ff1690602001909291905050506118a8565b005b34801561079957600080fd5b506107c6600480360360208110156107b057600080fd5b8101908080359060200190929190505050611a67565b604051808273ffffffffffffffffffffffffffffffffffffffff1673ffffffffffffffffffffffffffffffffffffffff16815260200191505060405180910390f35b34801561081457600080fd5b506108416004803603602081101561082b57600080fd5b8101908080359060200190929190505050611aa3565b005b34801561084f57600080fd5b50610858611d40565b6040518082815260200191505060405180910390f35b34801561087a57600080fd5b506108bd6004803603602081101561089157600080fd5b81019080803573ffffffffffffffffffffffffffffffffffffffff169060200190929190505050611d46565b6040518082815260200191505060405180910390f35b3480156108df57600080fd5b5061090c600480360360208110156108f657600080fd5b8101908080359060200190929190505050611d5e565b604051808273ffffffffffffffffffffffffffffffffffffffff1673ffffffffffffffffffffffffffffffffffffffff16815260200191505060405180910390f35b34801561095a57600080fd5b50610963611e25565b6040518082815260200191505060405180910390f35b34801561098557600080fd5b506109bc6004803603604081101561099c57600080fd5b810190808035906020019092919080359060200190929190505050611e6c565b005b3480156109ca57600080fd5b506109f7600480360360208110156109e157600080fd5b8101908080359060200190929190505050612389565b6040518082815260200191505060405180910390f35b610a3960048036036020811015610a2357600080fd5b81019080803590602001909291905050506123aa565b005b348015610a4757600080fd5b50610a7e60048036036040811015610a5e57600080fd5b8101908080359060200190929190803590602001909291905050506127f6565b005b348015610a8c57600080fd5b50610abd60048036036020811015610aa357600080fd5b81019080803561ffff1690602001909291905050506129ed565b604051808261ffff1661ffff16815260200191505060405180910390f35b348015610ae757600080fd5b50610b1460048036036020811015610afe57600080fd5b8101908080359060200190929190505050612a0e565b005b6000809054906101000a900473ffffffffffffffffffffffffffffffffffffffff1681565b60098181548110610b4857fe5b9060005260206000209060209182820401919006915054906101000a900460ff1681565b6000600f60003373ffffffffffffffffffffffffffffffffffffffff1673ffffffffffffffffffffffffffffffffffffffff1681526020019081526020016000205411610c04576040517f08c379a0000000000000000000000000000000000000000000000000000000008152600401808060200182810382526025815260200180612e5f6025913960400191505060405180910390fd5b6000600f60003373ffffffffffffffffffffffffffffffffffffffff1673ffffffffffffffffffffffffffffffffffffffff1681526020019081526020016000205490506000600f60003373ffffffffffffffffffffffffffffffffffffffff1673ffffffffffffffffffffffffffffffffffffffff1681526020019081526020016000208190555060003390508073ffffffffffffffffffffffffffffffffffffffff166108fc839081150290604051600060405180830381858888f19350505050158015610cd8573d6000803e3d6000fd5b505050565b6000809054906101000a900473ffffffffffffffffffffffffffffffffffffffff1673ffffffffffffffffffffffffffffffffffffffff163373ffffffffffffffffffffffffffffffffffffffff1614610d82576040517f08c379a0000000000000000000000000000000000000000000000000000000008152600401808060200182810382526027815260200180612e386027913960400191505060405180910390fd5b8060108190555050565b60068181548110610d9957fe5b9060005260206000209060209182820401919006915054906101000a900460ff1681565b6000809054906101000a900473ffffffffffffffffffffffffffffffffffffffff1673ffffffffffffffffffffffffffffffffffffffff163373ffffffffffffffffffffffffffffffffffffffff1614610e62576040517f08c379a0000000000000000000000000000000000000000000000000000000008152600401808060200182810382526027815260200180612e386027913960400191505060405180910390fd5b600060015414610eda576040517f08c379a000000000000000000000000000000000000000000000000000000000815260040180806020018281038252601f8152602001807f506f6b656d6f6e206861766520616c7265616479206265656e2061646465640081525060200191505060405180910390fd5b610eeb6001600460018060006118a8565b610efc6002601160028060006118a8565b610f136001670de0b6b3a764000060016005610f2c565b610f2a6002670de0b6b3a764000060016005610f2c565b565b6000809054906101000a900473ffffffffffffffffffffffffffffffffffffffff1673ffffffffffffffffffffffffffffffffffffffff163373ffffffffffffffffffffffffffffffffffffffff1614610fd1576040517f08c379a0000000000000000000000000000000000000000000000000000000008152600401808060200182810382526027815260200180612e386027913960400191505060405180910390fd5b6000600b60008661ffff1661ffff16815260200190815260200160002060009054906101000a900460ff1660ff161415611056576040517f08c379a000000000000000000000000000000000000000000000000000000000815260040180806020018281038252602d815260200180612d3e602d913960400191505060405180910390fd5b6000600c60008661ffff1661ffff16815260200190815260200160002060009054906101000a900461ffff1661ffff1614156110dd576040517f08c379a0000000000000000000000000000000000000000000000000000000008152600401808060200182810382526037815260200180612d6b6037913960400191505060405180910390fd5b6000600d60008661ffff1661ffff16815260200190815260200160002060009054906101000a900461ffff1661ffff161415611164576040517f08c379a0000000000000000000000000000000000000000000000000000000008152600401808060200182810382526041815260200180612df76041913960600191505060405180910390fd5b6001806000828254019250508190555060028490806001815401808255809150506001900390600052602060002090601091828204019190066002029091909190916101000a81548161ffff021916908361ffff16021790555060036000809054906101000a900473ffffffffffffffffffffffffffffffffffffffff169080600181540180825580915050600190039060005260206000200160009091909190916101000a81548173ffffffffffffffffffffffffffffffffffffffff021916908373ffffffffffffffffffffffffffffffffffffffff16021790555060048290806001815401808255809150506001900390600052602060002090602091828204019190069091909190916101000a81548160ff021916908315150217905550600583908060018154018082558091505060019003906000526020600020016000909190919091505560068190806001815401808255809150506001900390600052602060002090602091828204019190069091909190916101000a81548160ff021916908360ff1602179055506007600090806001815401808255809150506001900390600052602060002090602091828204019190069091909190916101000a81548160ff0219169083151502179055506008600090806001815401808255809150506001900390600052602060002090602091828204019190069091909190916101000a81548160ff0219169083151502179055506009600e60008661ffff1661ffff16815260200190815260200160002060009054906101000a900460ff1690806001815401808255809150506001900390600052602060002090602091828204019190069091909190916101000a81548160ff021916908360ff160217905550600a600090806001815401808255809150506001900390600052602060002001600090919091909150557f7fec49099616f11f740db9fd697a5c5e6c02a45cd268ec2e909ca7277c21d40160018054036040518082815260200191505060405180910390a150505050565b6002818154811061146357fe5b9060005260206000209060109182820401919006600202915054906101000a900461ffff1681565b600d6020528060005260406000206000915054906101000a900461ffff1681565b600a81815481106114b957fe5b906000526020600020016000915090505481565b600481815481106114da57fe5b9060005260206000209060209182820401919006915054906101000a900460ff1681565b600b6020528060005260406000206000915054906101000a900460ff1681565b60105481565b6008818154811061153157fe5b9060005260206000209060209182820401919006915054906101000a900460ff1681565b8060008110158015611568575060015481105b6115da576040517f08c379a00000000000000000000000000000000000000000000000000000000081526004018080602001828103825260188152602001807f506f6b656d6f6e206964206f7574206f6620626f756e6473000000000000000081525060200191505060405180910390fd5b813373ffffffffffffffffffffffffffffffffffffffff16600382815481106115ff57fe5b9060005260206000200160009054906101000a900473ffffffffffffffffffffffffffffffffffffffff1673ffffffffffffffffffffffffffffffffffffffff16146116b3576040517f08c379a000000000000000000000000000000000000000000000000000000000815260040180806020018281038252601b8152602001807f596f7520646f206e6f74206f776e207468697320706f6b656d6f6e000000000081525060200191505060405180910390fd5b600883815481106116c057fe5b90600052602060002090602091828204019190069054906101000a900460ff16611752576040517f08c379a000000000000000000000000000000000000000000000000000000000815260040180806020018281038252601b8152602001807f5468697320706f6b656d6f6e206973206e6f74207374756e6e6564000000000081525060200191505060405180910390fd5b60105434146117ac576040517f08c379a0000000000000000000000000000000000000000000000000000000008152600401808060200182810382526025815260200180612ea76025913960400191505060405180910390fd5b34600f60008060009054906101000a900473ffffffffffffffffffffffffffffffffffffffff1673ffffffffffffffffffffffffffffffffffffffff1673ffffffffffffffffffffffffffffffffffffffff1681526020019081526020016000206000828254019250508190555060006008848154811061182957fe5b90600052602060002090602091828204019190066101000a81548160ff021916908315150217905550505050565b600e6020528060005260406000206000915054906101000a900460ff1681565b6007818154811061188457fe5b9060005260206000209060209182820401919006915054906101000a900460ff1681565b6000809054906101000a900473ffffffffffffffffffffffffffffffffffffffff1673ffffffffffffffffffffffffffffffffffffffff163373ffffffffffffffffffffffffffffffffffffffff161461194d576040517f08c379a0000000000000000000000000000000000000000000000000000000008152600401808060200182810382526027815260200180612e386027913960400191505060405180910390fd5b83600b60008761ffff1661ffff16815260200190815260200160002060006101000a81548160ff021916908360ff16021790555082600c60008761ffff1661ffff16815260200190815260200160002060006101000a81548161ffff021916908361ffff16021790555081600d60008761ffff1661ffff16815260200190815260200160002060006101000a81548161ffff021916908361ffff16021790555080600e60008761ffff1661ffff16815260200190815260200160002060006101000a81548160ff021916908360ff1602179055507f534994138948cf5d19e812ccc566f09cab4902d6bff9033ca841730ce2fb4a7285604051808261ffff1661ffff16815260200191505060405180910390a15050505050565b60038181548110611a7457fe5b906000526020600020016000915054906101000a900473ffffffffffffffffffffffffffffffffffffffff1681565b8060008110158015611ab6575060015481105b611b28576040517f08c379a00000000000000000000000000000000000000000000000000000000081526004018080602001828103825260188152602001807f506f6b656d6f6e206964206f7574206f6620626f756e6473000000000000000081525060200191505060405180910390fd5b813373ffffffffffffffffffffffffffffffffffffffff1660038281548110611b4d57fe5b9060005260206000200160009054906101000a900473ffffffffffffffffffffffffffffffffffffffff1673ffffffffffffffffffffffffffffffffffffffff1614611c01576040517f08c379a000000000000000000000000000000000000000000000000000000000815260040180806020018281038252601b8152602001807f596f7520646f206e6f74206f776e207468697320706f6b656d6f6e000000000081525060200191505060405180910390fd5b600060098481548110611c1057fe5b90600052602060002090602091828204019190069054906101000a900460ff1660ff1611611c89576040517f08c379a000000000000000000000000000000000000000000000000000000000815260040180806020018281038252602a815260200180612da2602a913960400191505060405180910390fd5b600160098481548110611c9857fe5b90600052602060002090602091828204019190068282829054906101000a900460ff160392506101000a81548160ff021916908360ff160217905550611d3b600d600060028681548110611ce857fe5b90600052602060002090601091828204019190066002029054906101000a900461ffff1661ffff1661ffff16815260200190815260200160002060009054906101000a900461ffff166000806001610f2c565b505050565b60015481565b600f6020528060005260406000206000915090505481565b60008160008110158015611d73575060015481105b611de5576040517f08c379a00000000000000000000000000000000000000000000000000000000081526004018080602001828103825260188152602001807f506f6b656d6f6e206964206f7574206f6620626f756e6473000000000000000081525060200191505060405180910390fd5b60038381548110611df257fe5b9060005260206000200160009054906101000a900473ffffffffffffffffffffffffffffffffffffffff16915050919050565b6000600f60003373ffffffffffffffffffffffffffffffffffffffff1673ffffffffffffffffffffffffffffffffffffffff16815260200190815260200160002054905090565b8160008110158015611e7f575060015481105b611ef1576040517f08c379a00000000000000000000000000000000000000000000000000000000081526004018080602001828103825260188152602001807f506f6b656d6f6e206964206f7574206f6620626f756e6473000000000000000081525060200191505060405180910390fd5b8160008110158015611f04575060015481105b611f76576040517f08c379a00000000000000000000000000000000000000000000000000000000081526004018080602001828103825260188152602001807f506f6b656d6f6e206964206f7574206f6620626f756e6473000000000000000081525060200191505060405180910390fd5b833373ffffffffffffffffffffffffffffffffffffffff1660038281548110611f9b57fe5b9060005260206000200160009054906101000a900473ffffffffffffffffffffffffffffffffffffffff1673ffffffffffffffffffffffffffffffffffffffff161461204f576040517f08c379a000000000000000000000000000000000000000000000000000000000815260040180806020018281038252601b8152602001807f596f7520646f206e6f74206f776e207468697320706f6b656d6f6e000000000081525060200191505060405180910390fd5b6008858154811061205c57fe5b90600052602060002090602091828204019190069054906101000a900460ff16156120ef576040517f08c379a00000000000000000000000000000000000000000000000000000000081526004018080602001828103825260178152602001807f5468697320706f6b656d6f6e206973207374756e6e656400000000000000000081525060200191505060405180910390fd5b60006120f9612cf9565b905060006006868154811061210a57fe5b90600052602060002090602091828204019190069054906101000a900460ff166006888154811061213757fe5b90600052602060002090602091828204019190069054906101000a900460ff16039050600060018260040160ff1660020a0390506000808260ff168560ff16116121865789915088905061218d565b8891508990505b60056006838154811061219c57fe5b90600052602060002090602091828204019190069054906101000a900460ff1660ff161015612211576001600683815481106121d457fe5b90600052602060002090602091828204019190068282829054906101000a900460ff160192506101000a81548160ff021916908360ff1602179055505b6002828154811061221e57fe5b90600052602060002090601091828204019190066002029054906101000a900461ffff1661ffff16600c60006002858154811061225757fe5b90600052602060002090601091828204019190066002029054906101000a900461ffff1661ffff1661ffff16815260200190815260200160002060009054906101000a900461ffff1661ffff16146122e2576001600783815481106122b857fe5b90600052602060002090602091828204019190066101000a81548160ff0219169083151502179055505b6001600882815481106122f157fe5b90600052602060002090602091828204019190066101000a81548160ff0219169083151502179055507f9aed943103b35f67bae36592bd6d9ceb5ad75e9fa2948eac10a56df488cda57c8a8a878686604051808681526020018581526020018460ff1660ff1681526020018360ff1660ff1681526020018281526020019550505050505060405180910390a150505050505050505050565b6005818154811061239657fe5b906000526020600020016000915090505481565b80600081101580156123bd575060015481105b61242f576040517f08c379a00000000000000000000000000000000000000000000000000000000081526004018080602001828103825260188152602001807f506f6b656d6f6e206964206f7574206f6620626f756e6473000000000000000081525060200191505060405180910390fd5b3373ffffffffffffffffffffffffffffffffffffffff166003838154811061245357fe5b9060005260206000200160009054906101000a900473ffffffffffffffffffffffffffffffffffffffff1673ffffffffffffffffffffffffffffffffffffffff161415612508576040517f08c379a000000000000000000000000000000000000000000000000000000000815260040180806020018281038252601c8152602001807f596f7520616c7265616479206f776e207468697320706f6b656d6f6e0000000081525060200191505060405180910390fd5b346005838154811061251657fe5b906000526020600020015414612577576040517f08c379a000000000000000000000000000000000000000000000000000000000815260040180806020018281038252602b815260200180612dcc602b913960400191505060405180910390fd5b6004828154811061258457fe5b90600052602060002090602091828204019190069054906101000a900460ff16612616576040517f08c379a000000000000000000000000000000000000000000000000000000000815260040180806020018281038252601c8152602001807f5468697320706f6b656d6f6e206973206e6f7420666f722073616c650000000081525060200191505060405180910390fd5b60006003838154811061262557fe5b9060005260206000200160009054906101000a900473ffffffffffffffffffffffffffffffffffffffff16905034600f60008373ffffffffffffffffffffffffffffffffffffffff1673ffffffffffffffffffffffffffffffffffffffff1681526020019081526020016000206000828254019250508190555033600384815481106126ad57fe5b9060005260206000200160006101000a81548173ffffffffffffffffffffffffffffffffffffffff021916908373ffffffffffffffffffffffffffffffffffffffff16021790555060006004848154811061270457fe5b90600052602060002090602091828204019190066101000a81548160ff02191690831515021790555060006005848154811061273c57fe5b90600052602060002001819055507f46661dab58311a6838247afecbee792192b4f27fc8b3e7168c66bc55ec2e404e81338534604051808573ffffffffffffffffffffffffffffffffffffffff1673ffffffffffffffffffffffffffffffffffffffff1681526020018473ffffffffffffffffffffffffffffffffffffffff1673ffffffffffffffffffffffffffffffffffffffff16815260200183815260200182815260200194505050505060405180910390a1505050565b8160008110158015612809575060015481105b61287b576040517f08c379a00000000000000000000000000000000000000000000000000000000081526004018080602001828103825260188152602001807f506f6b656d6f6e206964206f7574206f6620626f756e6473000000000000000081525060200191505060405180910390fd5b823373ffffffffffffffffffffffffffffffffffffffff16600382815481106128a057fe5b9060005260206000200160009054906101000a900473ffffffffffffffffffffffffffffffffffffffff1673ffffffffffffffffffffffffffffffffffffffff1614612954576040517f08c379a000000000000000000000000000000000000000000000000000000000815260040180806020018281038252601b8152602001807f596f7520646f206e6f74206f776e207468697320706f6b656d6f6e000000000081525060200191505060405180910390fd5b60016004858154811061296357fe5b90600052602060002090602091828204019190066101000a81548160ff021916908315150217905550826005858154811061299a57fe5b90600052602060002001819055507f27aebf2e0e5cf25f00bd3797d26b69f66ac7ccb85a55702906e672e9cb7d1c258484604051808381526020018281526020019250505060405180910390a150505050565b600c6020528060005260406000206000915054906101000a900461ffff1681565b8060008110158015612a21575060015481105b612a93576040517f08c379a00000000000000000000000000000000000000000000000000000000081526004018080602001828103825260188152602001807f506f6b656d6f6e206964206f7574206f6620626f756e6473000000000000000081525060200191505060405180910390fd5b813373ffffffffffffffffffffffffffffffffffffffff1660038281548110612ab857fe5b9060005260206000200160009054906101000a900473ffffffffffffffffffffffffffffffffffffffff1673ffffffffffffffffffffffffffffffffffffffff1614612b6c576040517f08c379a000000000000000000000000000000000000000000000000000000000815260040180806020018281038252601b8152602001807f596f7520646f206e6f74206f776e207468697320706f6b656d6f6e000000000081525060200191505060405180910390fd5b60078381548110612b7957fe5b90600052602060002090602091828204019190069054906101000a900460ff16612bee576040517f08c379a0000000000000000000000000000000000000000000000000000000008152600401808060200182810382526023815260200180612e846023913960400191505060405180910390fd5b600060078481548110612bfd57fe5b90600052602060002090602091828204019190066101000a81548160ff021916908315150217905550600060088481548110612c3557fe5b90600052602060002090602091828204019190066101000a81548160ff021916908315150217905550600c600060028581548110612c6f57fe5b90600052602060002090601091828204019190066002029054906101000a900461ffff1661ffff1661ffff16815260200190815260200160002060009054906101000a900461ffff1660028481548110612cc557fe5b90600052602060002090601091828204019190066002026101000a81548161ffff021916908361ffff160217905550505050565b600060fb42446040516020018083815260200182815260200192505050604051602081830303815290604052805190602001206001900481612d3757fe5b0690509056fe546865207479706520666f7220746869732073706563696573206861736e2774206265656e20646566696e6564546865206e6578742065766f6c7574696f6e20666f7220746869732073706563696573206861736e2774206265656e20646566696e65645468697320706f6b656d6f6e2063616e6e6f74206f722063616e206e6f206c6f6e6765722062726565644e6f207061796d656e74207265636569766564206f722077726f6e67207061796d656e7420616d6f756e745468652066697273742065766f6c7574696f6e206f6e20626972746820666f7220746869732073706563696573206861736e2774206265656e20646566696e65644f6e6c792067616d652061646d696e2063616e2063616c6c20746869732066756e6374696f6e2e596f7520646f206e6f74206861766520616e792066756e647320746f2077697468647261775468697320706f6b656d6f6e206973206e6f7420726561647920746f2065766f6c76654e6f206f722077726f6e67207061796d656e7420616d6f756e7420666f7220726576697665a2646970667358221220681a3fce27b292cec450355ea560b66d786fdd2a3a75e689058c2ef4adfb0eaa64736f6c63430006020033",
  "source": "pragma solidity >=0.6.1;\r\n\r\ncontract Cryptomon {\r\n    address public _admin;\r\n\r\n    uint public _totalNumPokemon;\r\n    uint16[] public _pokSpeciesId;\r\n    address[] public _pokOwner;\r\n    bool[] public _pokForSale;\r\n    uint[] public _pokPrice;\r\n    uint8[] public _pokLevel;\r\n    bool[] public _pokCanEvolve;\r\n    bool[] public _pokStunned;\r\n    uint8[] public _pokTimesCanBreed;\r\n    uint[] public _pokGeneration;\r\n\r\n    mapping(uint16 => uint8) public _speciesType;\r\n    mapping(uint16 => uint16) public _speciesEvolvesTo;\r\n    mapping(uint16 => uint16) public _speciesBreedsTo;\r\n    mapping(uint16 => uint8) public _speciesTimesCanBreed;\r\n\r\n    mapping (address => uint) public _pendingWithdrawals;\r\n\r\n    uint public _revivePrice = 10 finney;\r\n\r\n    event SpeciesDefined(uint16 speciesId);\r\n    event PokemonAdded(uint pokId);\r\n    event Purchase(address seller, address buyer, uint id, uint amount);\r\n    event ListedForSale(uint id, uint amount);\r\n    event Fight(uint attacker, uint defender, uint8 rand, uint8 winRate256, uint winner);\r\n\r\n    modifier adminOnly() {\r\n        require(msg.sender == _admin, \"Only game admin can call this function.\");\r\n        _;\r\n    }\r\n\r\n    modifier checkPokemonId(uint id) {\r\n        require(id >= 0 && id < _totalNumPokemon, \"Pokemon id out of bounds\");\r\n        _;\r\n    }\r\n\r\n    modifier checkOwnsPokemon(uint id) {\r\n        require(_pokOwner[id] == msg.sender, \"You do not own this pokemon\");\r\n        _;\r\n    }\r\n\r\n    constructor() public {\r\n        _admin = msg.sender;\r\n        _totalNumPokemon = 0;\r\n    }\r\n\r\n    function addInitialPokemon() external adminOnly() {\r\n        require(_totalNumPokemon == 0, \"Pokemon have already been added\");\r\n        defineSpecies(\r\n            1, // Species: Tapu Koko \r\n            4, // Type: Electric \r\n            1, // Evolves to\r\n            1, // Breeds to\r\n            0 // Times can breed\r\n        );\r\n        defineSpecies(\r\n            2, // Species: Tapu Lele\r\n            17, // Type: Fairy\r\n            2, \r\n            2, \r\n            0\r\n        );\r\n        addPokemon(1, 1 ether, true, 5);\r\n        addPokemon(2, 1 ether, true, 5);\r\n    }\r\n\r\n    receive () external payable {\r\n        _pendingWithdrawals[msg.sender] += msg.value;\r\n    }\r\n\r\n    function getOwner(uint id) external view checkPokemonId(id) returns (address owner) {\r\n        return _pokOwner[id];\r\n    }\r\n\r\n    function defineSpecies(\r\n        uint16 speciesId, uint8 speciesType, uint16 evolvesTo, uint16 breedsTo, uint8 timesCanBreed\r\n    ) public adminOnly() {\r\n        _speciesType[speciesId] = speciesType;\r\n        _speciesEvolvesTo[speciesId] = evolvesTo;\r\n        _speciesBreedsTo[speciesId] = breedsTo;\r\n        _speciesTimesCanBreed[speciesId] = timesCanBreed;\r\n        emit SpeciesDefined(speciesId);\r\n    }\r\n\r\n    function addPokemon(\r\n        uint16 species,\r\n        uint price,\r\n        bool forSale,\r\n        uint8 level\r\n    ) public adminOnly() {\r\n        require(_speciesType[species] != 0, \"The type for this species hasn't been defined\");\r\n        require(_speciesEvolvesTo[species] != 0, \"The next evolution for this species hasn't been defined\");\r\n        require(_speciesBreedsTo[species] != 0, \"The first evolution on birth for this species hasn't been defined\");\r\n        _totalNumPokemon += 1;\r\n        _pokSpeciesId.push(species);\r\n        _pokOwner.push(_admin);\r\n        _pokForSale.push(forSale);\r\n        _pokPrice.push(price);\r\n        _pokLevel.push(level);\r\n        _pokCanEvolve.push(false);\r\n        _pokStunned.push(false);\r\n        _pokTimesCanBreed.push(_speciesTimesCanBreed[species]);\r\n        _pokGeneration.push(0);\r\n        emit PokemonAdded(_totalNumPokemon - 1);\r\n    }\r\n\r\n    function setRevivePrice(uint price) external adminOnly() {\r\n        _revivePrice = price;\r\n    }\r\n\r\n    function buyPokemon(uint id) external payable checkPokemonId(id) {\r\n        require(_pokOwner[id] != msg.sender, \"You already own this pokemon\");\r\n        require(_pokPrice[id] == msg.value, \"No payment received or wrong payment amount\");\r\n        require(_pokForSale[id], \"This pokemon is not for sale\");\r\n        address seller = _pokOwner[id];\r\n        _pendingWithdrawals[seller] += msg.value;\r\n        _pokOwner[id] = msg.sender;\r\n        _pokForSale[id] = false;\r\n        _pokPrice[id] = 0;\r\n        emit Purchase(seller, msg.sender, id, msg.value);\r\n    }\r\n\r\n    function sellPokemon(uint id, uint amount) external checkPokemonId(id) checkOwnsPokemon(id) {\r\n        _pokForSale[id] = true;\r\n        _pokPrice[id] = amount;\r\n        emit ListedForSale(id, amount);\r\n    }\r\n\r\n    function fight(uint attacker, uint defender) external checkPokemonId(attacker) checkPokemonId(defender) checkOwnsPokemon(attacker) {\r\n        require(!_pokStunned[attacker], \"This pokemon is stunned\");\r\n        uint8 rand = random();\r\n        uint8 advantage = _pokLevel[attacker] - _pokLevel[defender]; // +4 => certain win, -4 => certain loss\r\n        uint8 winRate256 = 2 ** (4 + advantage) - 1; // 256 => 100% win rate\r\n        uint winner;\r\n        uint loser;\r\n        if (rand <= winRate256) {\r\n            winner = attacker;\r\n            loser = defender;\r\n        } else {\r\n            winner = defender;\r\n            loser = attacker;\r\n        }\r\n        if (_pokLevel[winner] < 5) {\r\n            _pokLevel[winner] += 1;\r\n        }\r\n        if (_speciesEvolvesTo[_pokSpeciesId[winner]] != _pokSpeciesId[winner]) {\r\n            _pokCanEvolve[winner] = true;\r\n        }\r\n        _pokStunned[loser] = true;\r\n\r\n        emit Fight(attacker, defender, rand, winRate256, winner);\r\n    }\r\n\r\n    function evolve(uint id) external checkPokemonId(id) checkOwnsPokemon(id) {\r\n        require(_pokCanEvolve[id], \"This pokemon is not ready to evolve\");\r\n        _pokCanEvolve[id] = false;\r\n        _pokStunned[id] = false;\r\n        _pokSpeciesId[id] = _speciesEvolvesTo[_pokSpeciesId[id]];\r\n    }\r\n\r\n    function revive(uint id) external payable checkPokemonId(id) checkOwnsPokemon(id) {\r\n        require(_pokStunned[id], \"This pokemon is not stunned\");\r\n        require(msg.value == _revivePrice, \"No or wrong payment amount for revive\");\r\n        _pendingWithdrawals[_admin] += msg.value;\r\n        _pokStunned[id] = false;\r\n    }\r\n\r\n    function breed(uint id) external checkPokemonId(id) checkOwnsPokemon(id) {\r\n        require(_pokTimesCanBreed[id] > 0, \"This pokemon cannot or can no longer breed\");\r\n        _pokTimesCanBreed[id] -= 1;\r\n        addPokemon(_speciesBreedsTo[_pokSpeciesId[id]], 0, false, 1);\r\n    }\r\n\r\n    function checkBalance() external view returns (uint balance) {\r\n        return _pendingWithdrawals[msg.sender];\r\n    }\r\n\r\n    function withdrawFunds() external {\r\n        require(_pendingWithdrawals[msg.sender] > 0, \"You do not have any funds to withdraw\");\r\n        uint amount = _pendingWithdrawals[msg.sender];\r\n        _pendingWithdrawals[msg.sender] = 0;\r\n        address payable recipient = msg.sender;\r\n        recipient.transfer(amount);\r\n    }\r\n\r\n    function random() private view returns (uint8) {\r\n        // TODO: find a better way to do this\r\n        return uint8(uint256(keccak256(abi.encodePacked(block.timestamp, block.difficulty))) % 251);\r\n    }\r\n\r\n}",
  "sourcePath": "C:/Users/harry/Dev/cryptomon/contracts/Cryptomon.sol",
  "compiler": {
    "name": "solc",
    "version": "0.6.2+commit.bacdbe57.Emscripten.clang"
  },
  "schemaVersion": "3.0.22",
  "updatedAt": "2020-02-10T16:19:58.074Z",
  "networkType": "ethereum",
  "devdoc": {
    "methods": {}
  },
  "userdoc": {
    "methods": {}
  }
}