{
  "contractName": "Cryptomon",
  "abi": [
    {
      "inputs": [],
      "stateMutability": "nonpayable",
      "type": "constructor"
    },
    {
      "inputs": [],
      "name": "_admin",
      "outputs": [
        {
          "internalType": "address",
          "name": "",
          "type": "address"
        }
      ],
      "stateMutability": "view",
      "type": "function"
    },
    {
      "inputs": [
        {
          "internalType": "address",
          "name": "",
          "type": "address"
        }
      ],
      "name": "_pendingWithdrawals",
      "outputs": [
        {
          "internalType": "uint256",
          "name": "",
          "type": "uint256"
        }
      ],
      "stateMutability": "view",
      "type": "function"
    },
    {
      "inputs": [
        {
          "internalType": "uint256",
          "name": "",
          "type": "uint256"
        }
      ],
      "name": "_pokemons",
      "outputs": [
        {
          "internalType": "bytes32",
          "name": "pokemonSpecies",
          "type": "bytes32"
        },
        {
          "internalType": "bytes32",
          "name": "pokemonType",
          "type": "bytes32"
        },
        {
          "internalType": "address",
          "name": "owner",
          "type": "address"
        },
        {
          "internalType": "bool",
          "name": "forSale",
          "type": "bool"
        },
        {
          "internalType": "uint256",
          "name": "price",
          "type": "uint256"
        },
        {
          "internalType": "uint8",
          "name": "level",
          "type": "uint8"
        },
        {
          "internalType": "bool",
          "name": "stunned",
          "type": "bool"
        },
        {
          "internalType": "bytes32",
          "name": "evolvesTo",
          "type": "bytes32"
        },
        {
          "internalType": "uint8",
          "name": "timesCanBreed",
          "type": "uint8"
        },
        {
          "internalType": "uint256",
          "name": "generation",
          "type": "uint256"
        },
        {
          "internalType": "bytes32",
          "name": "breedsTo",
          "type": "bytes32"
        }
      ],
      "stateMutability": "view",
      "type": "function"
    },
    {
      "inputs": [
        {
          "internalType": "address",
          "name": "",
          "type": "address"
        },
        {
          "internalType": "uint256",
          "name": "",
          "type": "uint256"
        }
      ],
      "name": "_pokemonsByOwner",
      "outputs": [
        {
          "internalType": "bytes32",
          "name": "pokemonSpecies",
          "type": "bytes32"
        },
        {
          "internalType": "bytes32",
          "name": "pokemonType",
          "type": "bytes32"
        },
        {
          "internalType": "address",
          "name": "owner",
          "type": "address"
        },
        {
          "internalType": "bool",
          "name": "forSale",
          "type": "bool"
        },
        {
          "internalType": "uint256",
          "name": "price",
          "type": "uint256"
        },
        {
          "internalType": "uint8",
          "name": "level",
          "type": "uint8"
        },
        {
          "internalType": "bool",
          "name": "stunned",
          "type": "bool"
        },
        {
          "internalType": "bytes32",
          "name": "evolvesTo",
          "type": "bytes32"
        },
        {
          "internalType": "uint8",
          "name": "timesCanBreed",
          "type": "uint8"
        },
        {
          "internalType": "uint256",
          "name": "generation",
          "type": "uint256"
        },
        {
          "internalType": "bytes32",
          "name": "breedsTo",
          "type": "bytes32"
        }
      ],
      "stateMutability": "view",
      "type": "function"
    },
    {
      "inputs": [
        {
          "internalType": "uint256",
          "name": "",
          "type": "uint256"
        }
      ],
      "name": "_pokemonsForSale",
      "outputs": [
        {
          "internalType": "bytes32",
          "name": "pokemonSpecies",
          "type": "bytes32"
        },
        {
          "internalType": "bytes32",
          "name": "pokemonType",
          "type": "bytes32"
        },
        {
          "internalType": "address",
          "name": "owner",
          "type": "address"
        },
        {
          "internalType": "bool",
          "name": "forSale",
          "type": "bool"
        },
        {
          "internalType": "uint256",
          "name": "price",
          "type": "uint256"
        },
        {
          "internalType": "uint8",
          "name": "level",
          "type": "uint8"
        },
        {
          "internalType": "bool",
          "name": "stunned",
          "type": "bool"
        },
        {
          "internalType": "bytes32",
          "name": "evolvesTo",
          "type": "bytes32"
        },
        {
          "internalType": "uint8",
          "name": "timesCanBreed",
          "type": "uint8"
        },
        {
          "internalType": "uint256",
          "name": "generation",
          "type": "uint256"
        },
        {
          "internalType": "bytes32",
          "name": "breedsTo",
          "type": "bytes32"
        }
      ],
      "stateMutability": "view",
      "type": "function"
    },
    {
      "inputs": [
        {
          "internalType": "bytes32",
          "name": "species",
          "type": "bytes32"
        },
        {
          "internalType": "bytes32",
          "name": "pokemonType",
          "type": "bytes32"
        },
        {
          "internalType": "uint256",
          "name": "price",
          "type": "uint256"
        },
        {
          "internalType": "uint8",
          "name": "level",
          "type": "uint8"
        },
        {
          "internalType": "bytes32",
          "name": "evolvesTo",
          "type": "bytes32"
        },
        {
          "internalType": "uint8",
          "name": "timesCanBreed",
          "type": "uint8"
        },
        {
          "internalType": "bytes32",
          "name": "breedsTo",
          "type": "bytes32"
        }
      ],
      "name": "addPokemon",
      "outputs": [
        {
          "internalType": "uint256",
          "name": "",
          "type": "uint256"
        }
      ],
      "stateMutability": "nonpayable",
      "type": "function"
    },
    {
      "inputs": [
        {
          "internalType": "uint256",
          "name": "id",
          "type": "uint256"
        }
      ],
      "name": "buyPokemon",
      "outputs": [
        {
          "internalType": "uint256",
          "name": "",
          "type": "uint256"
        }
      ],
      "stateMutability": "payable",
      "type": "function"
    },
    {
      "inputs": [
        {
          "internalType": "uint256",
          "name": "id",
          "type": "uint256"
        },
        {
          "internalType": "uint256",
          "name": "amount",
          "type": "uint256"
        }
      ],
      "name": "sellPokemon",
      "outputs": [],
      "stateMutability": "nonpayable",
      "type": "function"
    },
    {
      "inputs": [],
      "name": "withdrawFunds",
      "outputs": [],
      "stateMutability": "nonpayable",
      "type": "function"
    }
  ],
  "bytecode": "0x608060405234801561001057600080fd5b50336000806101000a81548173ffffffffffffffffffffffffffffffffffffffff021916908373ffffffffffffffffffffffffffffffffffffffff160217905550610ebd806100606000396000f3fe6080604052600436106100865760003560e01c8063b3ac577c11610059578063b3ac577c146102c3578063c3662b2814610354578063d75efef0146103b9578063dd61e074146103fb578063e85dd66e146104d057610086565b806301bc45c91461008b57806324600fc3146100e25780633c2c3f17146100f957806355cb8beb146101ee575b600080fd5b34801561009757600080fd5b506100a0610515565b604051808273ffffffffffffffffffffffffffffffffffffffff1673ffffffffffffffffffffffffffffffffffffffff16815260200191505060405180910390f35b3480156100ee57600080fd5b506100f761053a565b005b34801561010557600080fd5b506101526004803603604081101561011c57600080fd5b81019080803573ffffffffffffffffffffffffffffffffffffffff1690602001909291908035906020019092919050505061060d565b604051808c81526020018b81526020018a73ffffffffffffffffffffffffffffffffffffffff1673ffffffffffffffffffffffffffffffffffffffff168152602001891515151581526020018881526020018760ff1660ff168152602001861515151581526020018581526020018460ff1660ff1681526020018381526020018281526020019b50505050505050505050505060405180910390f35b3480156101fa57600080fd5b506102276004803603602081101561021157600080fd5b81019080803590602001909291905050506106d5565b604051808c81526020018b81526020018a73ffffffffffffffffffffffffffffffffffffffff1673ffffffffffffffffffffffffffffffffffffffff168152602001891515151581526020018881526020018760ff1660ff168152602001861515151581526020018581526020018460ff1660ff1681526020018381526020018281526020019b50505050505050505050505060405180910390f35b3480156102cf57600080fd5b5061033e600480360360e08110156102e657600080fd5b81019080803590602001909291908035906020019092919080359060200190929190803560ff16906020019092919080359060200190929190803560ff16906020019092919080359060200190929190505050610790565b6040518082815260200191505060405180910390f35b34801561036057600080fd5b506103a36004803603602081101561037757600080fd5b81019080803573ffffffffffffffffffffffffffffffffffffffff169060200190929190505050610a23565b6040518082815260200191505060405180910390f35b6103e5600480360360208110156103cf57600080fd5b8101908080359060200190929190505050610a3b565b6040518082815260200191505060405180910390f35b34801561040757600080fd5b506104346004803603602081101561041e57600080fd5b8101908080359060200190929190505050610c8a565b604051808c81526020018b81526020018a73ffffffffffffffffffffffffffffffffffffffff1673ffffffffffffffffffffffffffffffffffffffff168152602001891515151581526020018881526020018760ff1660ff168152602001861515151581526020018581526020018460ff1660ff1681526020018381526020018281526020019b50505050505050505050505060405180910390f35b3480156104dc57600080fd5b50610513600480360360408110156104f357600080fd5b810190808035906020019092919080359060200190929190505050610d45565b005b6000809054906101000a900473ffffffffffffffffffffffffffffffffffffffff1681565b6000600460003373ffffffffffffffffffffffffffffffffffffffff1673ffffffffffffffffffffffffffffffffffffffff1681526020019081526020016000205490506000600460003373ffffffffffffffffffffffffffffffffffffffff1673ffffffffffffffffffffffffffffffffffffffff168152602001908152602001600020819055503373ffffffffffffffffffffffffffffffffffffffff166108fc829081150290604051600060405180830381858888f19350505050158015610609573d6000803e3d6000fd5b5050565b6003602052816000526040600020818154811061062657fe5b9060005260206000209060090201600091509150508060000154908060010154908060020160009054906101000a900473ffffffffffffffffffffffffffffffffffffffff16908060020160149054906101000a900460ff16908060030154908060040160009054906101000a900460ff16908060040160019054906101000a900460ff16908060050154908060060160009054906101000a900460ff1690806007015490806008015490508b565b600281815481106106e257fe5b90600052602060002090600902016000915090508060000154908060010154908060020160009054906101000a900473ffffffffffffffffffffffffffffffffffffffff16908060020160149054906101000a900460ff16908060030154908060040160009054906101000a900460ff16908060040160019054906101000a900460ff16908060050154908060060160009054906101000a900460ff1690806007015490806008015490508b565b60008060009054906101000a900473ffffffffffffffffffffffffffffffffffffffff1673ffffffffffffffffffffffffffffffffffffffff163373ffffffffffffffffffffffffffffffffffffffff1614610837576040517f08c379a0000000000000000000000000000000000000000000000000000000008152600401808060200182810382526022815260200180610e666022913960400191505060405180910390fd5b61083f610d8f565b6040518061016001604052808a81526020018981526020016000809054906101000a900473ffffffffffffffffffffffffffffffffffffffff1673ffffffffffffffffffffffffffffffffffffffff1681526020016001151581526020018881526020018760ff1681526020016000151581526020018681526020018560ff168152602001600081526020018481525090506001819080600181540180825580915050600190039060005260206000209060090201600090919091909150600082015181600001556020820151816001015560408201518160020160006101000a81548173ffffffffffffffffffffffffffffffffffffffff021916908373ffffffffffffffffffffffffffffffffffffffff16021790555060608201518160020160146101000a81548160ff0219169083151502179055506080820151816003015560a08201518160040160006101000a81548160ff021916908360ff16021790555060c08201518160040160016101000a81548160ff02191690831515021790555060e082015181600501556101008201518160060160006101000a81548160ff021916908360ff1602179055506101208201518160070155610140820151816008015550506000600180805490500390508092505050979650505050505050565b60046020528060005260406000206000915090505481565b6000808210158015610a5257506001805490508211155b610ac4576040517f08c379a00000000000000000000000000000000000000000000000000000000081526004018080602001828103825260108152602001807f6964206f7574206f6620626f756e64730000000000000000000000000000000081525060200191505060405180910390fd5b600060018381548110610ad357fe5b9060005260206000209060090201905034816003015414610b3f576040517f08c379a000000000000000000000000000000000000000000000000000000000815260040180806020018281038252602b815260200180610e3b602b913960400191505060405180910390fd5b8060020160149054906101000a900460ff16610ba6576040517f08c379a0000000000000000000000000000000000000000000000000000000008152600401808060200182810382526025815260200180610e166025913960400191505060405180910390fd5b34600460008360020160009054906101000a900473ffffffffffffffffffffffffffffffffffffffff1673ffffffffffffffffffffffffffffffffffffffff1673ffffffffffffffffffffffffffffffffffffffff16815260200190815260200160002060008282540192505081905550338160020160006101000a81548173ffffffffffffffffffffffffffffffffffffffff021916908373ffffffffffffffffffffffffffffffffffffffff16021790555060008160020160146101000a81548160ff0219169083151502179055506000816003018190555082915050919050565b60018181548110610c9757fe5b90600052602060002090600902016000915090508060000154908060010154908060020160009054906101000a900473ffffffffffffffffffffffffffffffffffffffff16908060020160149054906101000a900460ff16908060030154908060040160009054906101000a900460ff16908060040160019054906101000a900460ff16908060050154908060060160009054906101000a900460ff1690806007015490806008015490508b565b600060018381548110610d5457fe5b9060005260206000209060090201905060018160020160146101000a81548160ff021916908315150217905550818160030181905550505050565b6040518061016001604052806000801916815260200160008019168152602001600073ffffffffffffffffffffffffffffffffffffffff16815260200160001515815260200160008152602001600060ff16815260200160001515815260200160008019168152602001600060ff1681526020016000815260200160008019168152509056fe5468652073706563696669656420706f6b656d6f6e206973206e6f7420666f722073616c654e6f207061796d656e74207265636569766564206f722077726f6e67207061796d656e7420616d6f756e744f6e6c792061646d696e2063616e2063616c6c20746869732066756e6374696f6e2ea264697066735822122051cd279954b2b53f97dadc6b4d74e4b4782428248d6fc6dd1dee3009d738ef1664736f6c63430006020033",
  "source": "pragma solidity ^0.6.1;\r\n\r\ncontract Cryptomon {\r\n\r\n    struct Pokemon {\r\n        bytes32 pokemonSpecies;\r\n        bytes32 pokemonType;\r\n        address owner;\r\n        bool forSale;\r\n        uint price;\r\n        uint8 level;\r\n        bool stunned;\r\n        bytes32 evolvesTo;\r\n        uint8 timesCanBreed;\r\n        uint generation;\r\n        bytes32 breedsTo;\r\n    }\r\n\r\n    address public _admin;\r\n\r\n    Pokemon[] public _pokemons;\r\n    Pokemon[] public _pokemonsForSale;\r\n    mapping(address => Pokemon[]) public _pokemonsByOwner;\r\n\r\n    mapping (address => uint) public _pendingWithdrawals;\r\n\r\n    modifier adminOnly() {\r\n        require(msg.sender == _admin, \"Only admin can call this function.\");\r\n        _;\r\n    }\r\n\r\n    constructor() public {\r\n        _admin = msg.sender;\r\n    }\r\n\r\n    // function getIdsForSale() public view returns (uint[] memory ids) {\r\n    //     for (uint id = 0; id < _pokemons.length; id++) {\r\n    //         if(_pokemons[id].forSale){\r\n    //             ids.push(id);\r\n    //         }\r\n    //     }\r\n    //     return ids;\r\n    // }\r\n\r\n    // function getIdsOwnedBy(address account) public view returns (uint[] memory ids) {\r\n    //     for (uint id = 0; id < _pokemons.length; id++) {\r\n    //         if(_pokemons[id].owner == account){\r\n    //             ids.push(id);\r\n    //         }\r\n    //     }\r\n    //     return ids;\r\n    // }\r\n\r\n    function addPokemon(\r\n        bytes32 species,\r\n        bytes32 pokemonType,\r\n        uint price,\r\n        uint8 level,\r\n        bytes32 evolvesTo,\r\n        uint8 timesCanBreed,\r\n        bytes32 breedsTo\r\n    ) external adminOnly() returns (uint) {\r\n        Pokemon memory newPokemon = Pokemon({\r\n            pokemonSpecies: species,\r\n            pokemonType: pokemonType,\r\n            owner: _admin,\r\n            forSale: true,\r\n            price: price,\r\n            level: level,\r\n            stunned: false,\r\n            evolvesTo: evolvesTo,\r\n            timesCanBreed: timesCanBreed,\r\n            generation: 0,\r\n            breedsTo: breedsTo\r\n        });\r\n        _pokemons.push(newPokemon);\r\n        uint idOfNewPokemon = _pokemons.length - 1;\r\n        return idOfNewPokemon;\r\n    }\r\n\r\n    function buyPokemon(uint id) external payable returns (uint) {\r\n        require(id >= 0 && id <= _pokemons.length, \"id out of bounds\");\r\n        Pokemon storage pokemon = _pokemons[id];\r\n        require(pokemon.price == msg.value, \"No payment received or wrong payment amount\");\r\n        require(pokemon.forSale, \"The specified pokemon is not for sale\");\r\n        _pendingWithdrawals[pokemon.owner] += msg.value;\r\n        pokemon.owner = msg.sender;\r\n        pokemon.forSale = false;\r\n        pokemon.price = 0;\r\n        return id;\r\n    }\r\n\r\n    function sellPokemon(uint id, uint amount) external {\r\n        Pokemon storage pokemon = _pokemons[id];\r\n        pokemon.forSale = true;\r\n        pokemon.price = amount;\r\n    }\r\n\r\n    function withdrawFunds() external {\r\n        uint amount = _pendingWithdrawals[msg.sender];\r\n        _pendingWithdrawals[msg.sender] = 0;\r\n        msg.sender.transfer(amount);\r\n    }\r\n}",
  "sourcePath": "C:/Users/harry/Dev/cryptomon/contracts/Cryptomon.sol",
  "compiler": {
    "name": "solc",
    "version": "0.6.2+commit.bacdbe57.Linux.g++"
  },
  "schemaVersion": "3.0.22",
  "updatedAt": "2020-02-03T11:39:42.194Z",
  "devdoc": {
    "methods": {}
  },
  "userdoc": {
    "methods": {}
  }
}