{
  "contractName": "Cryptomon",
  "abi": [
    {
      "inputs": [],
      "payable": false,
      "stateMutability": "nonpayable",
      "type": "constructor"
    },
    {
      "constant": true,
      "inputs": [
        {
          "internalType": "uint256",
          "name": "",
          "type": "uint256"
        }
      ],
      "name": "owner",
      "outputs": [
        {
          "internalType": "address",
          "name": "",
          "type": "address"
        }
      ],
      "payable": false,
      "stateMutability": "view",
      "type": "function"
    },
    {
      "constant": true,
      "inputs": [
        {
          "internalType": "uint256",
          "name": "",
          "type": "uint256"
        }
      ],
      "name": "price",
      "outputs": [
        {
          "internalType": "uint256",
          "name": "",
          "type": "uint256"
        }
      ],
      "payable": false,
      "stateMutability": "view",
      "type": "function"
    },
    {
      "constant": false,
      "inputs": [
        {
          "internalType": "uint256",
          "name": "pokemonId",
          "type": "uint256"
        }
      ],
      "name": "buyPokemon",
      "outputs": [
        {
          "internalType": "uint256",
          "name": "",
          "type": "uint256"
        }
      ],
      "payable": true,
      "stateMutability": "payable",
      "type": "function"
    },
    {
      "constant": true,
      "inputs": [],
      "name": "getOwners",
      "outputs": [
        {
          "internalType": "address[16]",
          "name": "",
          "type": "address[16]"
        }
      ],
      "payable": false,
      "stateMutability": "view",
      "type": "function"
    },
    {
      "constant": true,
      "inputs": [],
      "name": "getPrices",
      "outputs": [
        {
          "internalType": "uint256[16]",
          "name": "",
          "type": "uint256[16]"
        }
      ],
      "payable": false,
      "stateMutability": "view",
      "type": "function"
    },
    {
      "constant": false,
      "inputs": [],
      "name": "withdrawFunds",
      "outputs": [],
      "payable": false,
      "stateMutability": "nonpayable",
      "type": "function"
    }
  ],
  "bytecode": "0x608060405234801561001057600080fd5b5060008090505b60108160ff161015610080573360008260ff166010811061003457fe5b0160006101000a81548173ffffffffffffffffffffffffffffffffffffffff021916908373ffffffffffffffffffffffffffffffffffffffff1602179055508080600101915050610017565b5060008090505b60108160ff1610156100be57670de0b6b3a764000060108260ff16601081106100ac57fe5b01819055508080600101915050610087565b506106d4806100ce6000396000f3fe6080604052600436106100555760003560e01c806324600fc31461005a57806326a49e3714610071578063a0e67e2b146100c0578063a123c33e14610113578063bd9a548b1461018e578063d75efef0146101e1575b600080fd5b34801561006657600080fd5b5061006f610223565b005b34801561007d57600080fd5b506100aa6004803603602081101561009457600080fd5b81019080803590602001909291905050506102f6565b6040518082815260200191505060405180910390f35b3480156100cc57600080fd5b506100d561030e565b6040518082601060200280838360005b838110156101005780820151818401526020810190506100e5565b5050505090500191505060405180910390f35b34801561011f57600080fd5b5061014c6004803603602081101561013657600080fd5b810190808035906020019092919050505061038f565b604051808273ffffffffffffffffffffffffffffffffffffffff1673ffffffffffffffffffffffffffffffffffffffff16815260200191505060405180910390f35b34801561019a57600080fd5b506101a36103c2565b6040518082601060200280838360005b838110156101ce5780820151818401526020810190506101b3565b5050505090500191505060405180910390f35b61020d600480360360208110156101f757600080fd5b810190808035906020019092919050505061040c565b6040518082815260200191505060405180910390f35b6000602060003373ffffffffffffffffffffffffffffffffffffffff1673ffffffffffffffffffffffffffffffffffffffff1681526020019081526020016000205490506000602060003373ffffffffffffffffffffffffffffffffffffffff1673ffffffffffffffffffffffffffffffffffffffff168152602001908152602001600020819055503373ffffffffffffffffffffffffffffffffffffffff166108fc829081150290604051600060405180830381858888f193505050501580156102f2573d6000803e3d6000fd5b5050565b6010816010811061030357fe5b016000915090505481565b610316610659565b6000601080602002604051908101604052809291908260108015610385576020028201915b8160009054906101000a900473ffffffffffffffffffffffffffffffffffffffff1673ffffffffffffffffffffffffffffffffffffffff168152602001906001019080831161033b575b5050505050905090565b6000816010811061039c57fe5b016000915054906101000a900473ffffffffffffffffffffffffffffffffffffffff1681565b6103ca61067c565b60108080602002604051908101604052809291908260108015610402576020028201915b8154815260200190600101908083116103ee575b5050505050905090565b600080821015801561041f5750600f8211155b610491576040517f08c379a00000000000000000000000000000000000000000000000000000000081526004018080602001828103825260178152602001807f706f6b656d6f6e4964206f7574206f6620626f756e647300000000000000000081525060200191505060405180910390fd5b60003411610507576040517f08c379a00000000000000000000000000000000000000000000000000000000081526004018080602001828103825260108152602001807f5061796d656e742072657175697265640000000000000000000000000000000081525060200191505060405180910390fd5b346010836010811061051557fe5b01541461058a576040517f08c379a00000000000000000000000000000000000000000000000000000000081526004018080602001828103825260148152602001807f57726f6e67207061796d656e7420616d6f756e7400000000000000000000000081525060200191505060405180910390fd5b346020600080856010811061059b57fe5b0160009054906101000a900473ffffffffffffffffffffffffffffffffffffffff1673ffffffffffffffffffffffffffffffffffffffff1673ffffffffffffffffffffffffffffffffffffffff16815260200190815260200160002060008282540192505081905550336000836010811061061257fe5b0160006101000a81548173ffffffffffffffffffffffffffffffffffffffff021916908373ffffffffffffffffffffffffffffffffffffffff160217905550819050919050565b604051806102000160405280601090602082028038833980820191505090505090565b60405180610200016040528060109060208202803883398082019150509050509056fea265627a7a723158202562d776fd25dc0f25636150dde331f939396a31f4276116491de744c636837364736f6c63430005100032",
  "source": "pragma solidity ^0.5.0;\r\n\r\ncontract Cryptomon {\r\n    address[16] public owner;\r\n    uint[16] public price;\r\n\r\n    mapping (address => uint) pendingWithdrawals;\r\n\r\n    constructor() public {\r\n        // Creator of contract owns all pokemon\r\n        for (uint8 i = 0; i < owner.length; i++) {\r\n            owner[i] = msg.sender;\r\n        }\r\n\r\n        // All pokemon cost 1 ether\r\n        for (uint8 i = 0; i < price.length; i++) {\r\n            price[i] = 1 ether;\r\n        }\r\n    }\r\n\r\n    function buyPokemon(uint pokemonId) public payable returns (uint) {\r\n        require(pokemonId >= 0 && pokemonId <= 15, \"pokemonId out of bounds\");\r\n        require(msg.value > 0, \"Payment required\");\r\n        require(price[pokemonId] == msg.value, \"Wrong payment amount\");\r\n        pendingWithdrawals[owner[pokemonId]] += msg.value;\r\n        owner[pokemonId] = msg.sender;\r\n        return pokemonId;\r\n    }\r\n\r\n    function getOwners() public view returns (address[16] memory) {\r\n        return owner;\r\n    }\r\n\r\n    function getPrices() public view returns (uint[16] memory) {\r\n        return price;\r\n    }\r\n\r\n    function withdrawFunds() public {\r\n        uint amount = pendingWithdrawals[msg.sender];\r\n        pendingWithdrawals[msg.sender] = 0;\r\n        msg.sender.transfer(amount);\r\n    }\r\n}",
  "sourcePath": "C:/Users/harry/Dev/cryptomon/contracts/Cryptomon.sol",
  "compiler": {
    "name": "solc",
    "version": "0.5.16+commit.9c3226ce.Emscripten.clang"
  },
  "schemaVersion": "3.0.22",
  "updatedAt": "2020-02-02T18:45:24.200Z",
  "networkType": "ethereum",
  "devdoc": {
    "methods": {}
  },
  "userdoc": {
    "methods": {}
  }
}